:100000001CC0ACC350C2EFC0A9C3A8C3A7C3A6C33A
:10001000A5C3A4C3A3C3A2C3A1C3BDC19FC39EC3A1
:100020009DC3E9C114C231C099C398C397C396C395
:1000300095C394C33F003F28800011241FBECFEF1B
:10004000CDBFDFE3DEBFE4E3F0E040E017C0B591F1
:10005000A59135912591059107FD0CC0959185914C
:10006000EF01F92FE82F05900D92A217B307D9F7EA
:10007000FE0104C01D92A217B307E1F7E933F407AC
:0A00800031F7CDD247C3F894FFCF4B
:10008A001F920F920FB60F9211242F933F934F9303
:10009A005F936F937F938F939F93AF93BF93EF93E6
:1000AA00FF9380911B0883FD31C080911B0882FD5C
:1000BA002DC080911B0887FD04C080911B0886FF14
:1000CA0014C080911B0886FF04C080911B0880FF22
:1000DA0054C080911B0886FF04C080911B0880FDD4
:1000EA003CC080911B0887FD1CC0FF91EF91BF9116
:1000FA00AF919F918F917F916F915F914F913F91B6
:10010A002F910F900FBE0F901F90189580911B088A
:10011A0083FD4DC080911B0882FD15C01092203FBF
:10012A00C8CF80911B0881FF4CC080911F3F81116D
:10013A0032C080911B0884FF2EC083E080931A0886
:10014A0010921F3FD2CF82E08093203FE091043F7C
:10015A00F091053F85E00995ACCF81E080931F3F80
:10016A001092203FE091043FF091053F09958823C2
:10017A0089F183E080931A08B8CF10921F3FE0916B
:10018A00043FF091053F84E0099580911B08806C3B
:10019A0080931B08AACFE091043FF091053F83E0CA
:1001AA0009958111CACF86E080931A08C9CF81E0E8
:1001BA008093203FE091043FF091053F85E0099547
:1001CA0078CFE091043FF091053F82E009958823BA
:0C01DA0051F3B3CF86E080931A0887CF62
:1001E6001F920F920FB60F9211242F933F934F93A6
:1001F6005F936F937F938F939F93AF93BF93EF9389
:10020600FF9318993BC01A9933C0199924C01F99B6
:1002160029C01E991AC01B9B05C0E091063FF091AC
:10022600073F09958FEF83B9FF91EF91BF91AF918A
:100236009F918F917F916F915F914F913F912F91F8
:100246000F900FBE0F901F901895E091083FF09108
:10025600093F0995E0CFE0910C3FF0910D3F0995DC
:100266001F9BD7CFE0910A3FF0910B3F0995D1CF65
:10027600E0910E3FF0910F3F0995C7CFE091103FF7
:08028600F091113F0995BFCF73
:10028E008091273F882339F1813069F073D18091B5
:10029E00213F90E080931C3F90931D3F80911C3F27
:1002AE0090911D3F43C28091263F8F5F8093263FE2
:1002BE009091263F8091223F981710F01092263F82
:1002CE009091263F8091233F9817C0F08091253F53
:1002DE008093213FDCCF8091263F8F5F8093263F16
:1002EE008091263F863588F48091263F853549F0EA
:1002FE008091213F8D5F8093213FC9CF1092213F86
:10030E00C6CF8FEF8093213FC2CF81E08093273FEE
:06031E001092263FBCCF47
:10032400E0E0F4E0148288E88083108A118A128A5B
:10033400138A148A158A168A178AE0E0F2E010827A
:10034400118281E08283138281EB93E08093103FDA
:100354009093113F82EB93E080930E3F90930F3F75
:1003640083EB93E080930C3F90930D3F84EB93E0F9
:1003740080930A3F90930B3F80EB93E08093083F78
:100384009093093F8FEA93E08093063F9093073F51
:020394000895CA
:100396001F920F920FB60F9211242F933F934F93F4
:1003A6005F936F937F938F939F93AF93BF93EF93D7
:1003B600FF938091460A80FF0AC0E091143FF091B6
:1003C600153F309709F0099581E08093460AFF9121
:1003D600EF91BF91AF919F918F917F916F915F91B7
:1003E6004F913F912F910F900FBE0F901F90189530
:1003F6001F920F920FB60F9211242F933F934F9394
:100406005F936F937F938F939F93AF93BF93EF9376
:10041600FF9381E080930B06E091023FF091033F4A
:10042600309709F00995FF91EF91BF91AF919F9198
:100436008F917F916F915F914F913F912F910F9087
:080446000FBE0F901F901895E6
:10044E001F920F920FB60F9211242F933F934F933B
:10045E005F936F937F938F939F93AF93BF93EF931E
:10046E00FF9382E080930B06E091003FF091013FF5
:10047E00309709F00995FF91EF91BF91AF919F9140
:10048E008F917F916F915F914F913F912F910F902F
:08049E000FBE0F901F9018958E
:1004A6001F920F920FB60F9211242F933F934F93E3
:1004B6005F936F937F938F939F93AF93BF93EF93C6
:1004C600FF93E091123FF091133F309709F00995A1
:1004D60081E080938A00FF91EF91BF91AF919F9148
:1004E6008F917F916F915F914F913F912F910F90D7
:0804F6000FBE0F901F90189536
:1004FE00E0E0F6E080818E7F808382858C7F82872C
:10050E0083E083871092023F1092033F1092003FC8
:10051E001092013F1182128213821482158216826A
:10052E00108611861486148A158A128A138A168AE0
:08053E00128681E0808308951C
:10054600E0E0FAE010A611A612A613A614A615A6B8
:1005560010A211A283E18183128213821482158272
:100566001682178216861186128613868FEF9FEFE4
:0C05760086A397A3178685E08083089574
:100582001092273F82E08093243F87E18093233FAC
:100592008FE78093253F89E18093223F1092213F8C
:1005A20010921C3F10921D3F1092263F80911C3FDB
:0605B20090911D3FC1C045
:1005B800E0E4FAE080818E7F8083118210861482C5
:1005C80080E593EC8487958712861386168285EBDF
:1005D80093E08093143F9093153F81E0858383E0F7
:0405E800808308956F
:1005EC0040E068ED80E690E0ACD043E068ED81E659
:1005FC0090E0A7D040E068ED82E690E0A2D040E029
:10060C0068ED80E790E09DD040E068ED88E790E0F1
:02061C0098C084
:10061E005DD081E993E08FD080E480930204AADF5D
:10062E0060D010921E3F80911E3F8823E1F31092FE
:0A063E001E3FA89561D024DEF6CF20
:10064800E0E1F8E0108212828DE384878EEF8687DE
:1006580081E681871286158613861092043F1092D0
:04066800053F0895AD
:10066C00809306068091080681608093080680912D
:10067C00080680FDFCCF809110069091110608951C
:10068C0045E068ED80E890E05CD0E0E8F0E082E0E6
:0E069C008183118612861386108680E00895F1
:1006AA0040E068ED80E191E04DD0E0E1F1E01282B6
:0806BA001382789480E008959A
:1006C20040E068ED80E091E041D040E868ED81E0F3
:0806D20091E03CD080E00895A6
:1006DA0088DF23DE0FDF32DF6ADFD3DFB0DF36D019
:0606EA0021D0EADFDDCFA4
:1006F0008BE190E080931A3F90931B3F8093183FCB
:060700009093193F0895DB
:0E0706008EE1B1DF8093163F9093173F089568
:0E071400EC012BD029D0CE0129D0CE0128D067
:0C07220080911E3F8F5F80931E3F089562
:0C072E00E0EAF0E01082118280E0089503
:0A073A008093380A9093390A08955D
:0A0744008093143F9093153F089531
:08074E00FC0164BF4083089523
:060756001092011008954D
:02075C0051CC7E
:02075E000895FC
:020760000895FA
:020762000895F8
:020764000895F6
:020766000895F4
:020768000895F2
:02076A000895F0
:02076C000895EE
:02076E000895EC
:020770000895EA
:0207720089DC20
:02000004008278
:090000001345020000C4030000D6
:00000001FF
