:100000001CC00AC727C545C307C706C705C704C71D
:1000100003C702C701C700C7FFC694C4FDC6FCC61C
:10002000FBC6C0C4EBC440C1F7C6F6C6F5C6F4C6ED
:10003000F3C6F2C63F003F87800011241FBECFEFFA
:10004000CDBFDFE3DEBFE4E3F0E040E017C0B591F1
:10005000A59135912591059107FD0CC0959185914C
:10006000EF01F92FE82F05900D92A217B307D9F7EA
:10007000FE0104C01D92A217B307E1F7E933F407AC
:0A00800031F714D57DC6F894FFCFC8
:10008A0080914E3F90914F3F80932A3F80914E3FFF
:10009A0090914F3F90932B3F8091483F9091493FD9
:1000AA008093373F8091483F9091493F9093383FE2
:1000BA008091003F882351F08091143F8093723FD2
:1000CA008091143F8093283F1092003F8091023F15
:1000DA008111B1C08091033F8111ADC08091083F69
:1000EA00811105C08091093F882309F4C6C0809117
:1000FA001C3F80933C3F80911D3F80933D3F809100
:10010A001E3F80933E3F80911F3F80933F3F8091E7
:10011A00203F8093403F8091213F8093413F8CE371
:10012A009FE3D2D380911C3F8093303F80911D3F43
:10013A008093313F80911E3F8093323F80911F3FD1
:10014A008093333F8091203F8093343F8091213FB9
:10015A008093353F1092083F1092093F10920A3F50
:10016A0010920B3F10920C3F10920D3F8091013F6D
:10017A00882321F08091143F8093713F8091043F3E
:10018A0081112AC08091053F811126C08091043FC8
:10019A0081113BC08091053F811137C08091063F94
:1001AA00811104C08091073F8823A9F080911B3FE9
:1001BA0090E0982F882780934A3F90934B3F209155
:1001CA001A3F80914A3F90914B3F820F911D809335
:1001DA004A3F90934B3F08958091173F90E0982FA4
:1001EA00882780934C3F90934D3F2091163F8091F2
:1001FA004C3F90914D3F820F911D80934C3F9093BD
:10020A004D3F8091043F882329F28091173F90E067
:10021A00982F882780934C3F90934D3F2091163F0B
:10022A0080914C3F90914D3F820F911D80934C3F9E
:10023A0090934D3FB3CF8091173F90E0982F882736
:10024A0080934E3F90934F3F2091163F80914E3FAF
:10025A0090914F3F820F911D80934E3F90934F3F55
:10026A008091163F80932A3F8091173F80932B3FBE
:10027A001092023F1092033F31CF80910A3F8111C1
:10028A0036CF80910B3F811132CF80910C3F811183
:0E029A002ECF80910D3F882309F468CF28CF26
:1002A8001F920F920FB60F9211242F933F934F93E3
:1002B8005F936F937F938F939F93AF93BF93EF93C6
:1002C800FF9380911B0883FD31C080911B0882FD3C
:1002D8002DC080911B0887FD04C080911B0886FFF4
:1002E80014C080911B0886FF04C080911B0880FF02
:1002F80054C080911B0886FF04C080911B0880FDB4
:100308003CC080911B0887FD1CC0FF91EF91BF91F5
:10031800AF919F918F917F916F915F914F913F9195
:100328002F910F900FBE0F901F90189580911B086A
:1003380083FD4DC080911B0882FD15C01092763F49
:10034800C8CF80911B0881FF4CC08091753F8111F7
:1003580032C080911B0884FF2EC083E080931A0866
:100368001092753FD2CF82E08093763FE091543F60
:10037800F091553F85E00995ACCF81E08093753FBA
:100388001092763FE091543FF091553F09958823AC
:1003980089F183E080931A08B8CF1092753FE091F5
:1003A800543FF091553F84E0099580911B08806C7B
:1003B80080931B08AACFE091543FF091553F83E00A
:1003C80009958111CACF86E080931A08C9CF81E0C8
:1003D8008093763FE091543FF091553F85E0099531
:1003E80078CFE091543FF091553F82E009958823FA
:0C03F80051F3B3CF86E080931A0887CF42
:10040400CF93DF93C82F8330E1F1D8F4813071F1B9
:10041400823099F48091793F882309F457C010926F
:10042400793FE0914A8DF0914B8D09958093783F07
:100434008091783F843108F05CC081E0DF91CF91F6
:1004440008958430C1F18530C1F7E0914C8DF0916D
:100454004D8D09958093773F8091773F813069F383
:100464008091773F81E0DF91CF910895E0914E8DA7
:10047400F0914F8D0995811125C0C093793F81E09A
:10048400DDCFE091783FF0E0E85DF04C8081E091D1
:10049400488DF091498D09958091783F8F5F8093C5
:1004A400783F8091783F843140F21092783F81E028
:1004B400DF91CF9108951092783F99D481E0DF9134
:1004C400CF9108951092793F81E0B8CFC091783FE1
:1004D400D0E0E0914A8DF0914B8D0995CC5ED04CE3
:1004E4008883E091783FF0E0E050F14C81E0808334
:0A04F400D3CF1092783F80E0A1CF33
:1004FE008091863F882309F442C0813069F0F9D299
:10050E0080917A3F90E080936C3F90936D3F809105
:10051E006C3F90916D3F4FC48091853F8F5F80936C
:10052E00853F9091853F8091813F981710F01092F2
:10053E00853F9091853F8091823F981798F5109254
:10054E007A3F8091803F8823D9F280917F3F8F5FE1
:10055E0080937F3F90917F3F80917B3F981720F053
:10056E0010927F3F1092803F90917F3F80917C3F11
:10057E00981738F180917E3F80937A3FC1CF80915A
:10058E00853F8F5F8093853F8091853F863598F4B8
:10059E008091853F853559F080917A3F8D5F8093AC
:1005AE007A3FAECF8091843F80937A3FCACF8FEF50
:1005BE0080937A3FA5CF81E08093863F1092853F4E
:0805CE009FCF10927A3F9CCFF1
:1005D6008091723F8093143F8091713F8093153FC5
:1005E60080914E3F90914F3F8093163F80914E3FB2
:1005F60090914F3F9093173F80914C3F90914D3F84
:100606008093183F80914C3F90914D3F9093193FB6
:1006160080914A3F90914B3F80931A3F80914A3F89
:1006260090914B3F90931B3F80913C3F80931C3FA2
:1006360080913D3F80931D3F80913E3F80931E3FBA
:1006460080913F3F80931F3F8091403F8093203FA2
:100656008091413F8093213F8EE08093223F8FE03F
:100666008093233F80E18093243F81E18093253F5F
:1006760082E18093263F80E090E0FC01E050F14C5F
:0C0686001082019683319105C1F70895A0
:100692001F920F920FB60F9211242F933F934F93F5
:1006A2005F936F937F938F939F93AF93BF93EF93D8
:1006B200FF9318993BC01A9933C0199924C01F9906
:1006C20029C01E991AC01B9B05C0E091563FF091AC
:1006D200573F09958FEF83B9FF91EF91BF91AF918A
:1006E2009F918F917F916F915F914F913F912F9148
:1006F2000F900FBE0F901F901895E091583FF09108
:10070200593F0995E0CFE0915C3FF0915D3F09953B
:100712001F9BD7CFE0915A3FF0915B3F0995D1CF14
:10072200E0915E3FF0915F3F0995C7CFE091603F56
:08073200F091613F0995BFCF72
:10073A001092723F80E094E164D38093713F1092EB
:10074A004E3F10924F3F82E094E15BD390E080935A
:10075A004C3F90934D3F80914C3F90914D3F982F45
:10076A00882780934C3F90934D3F81E094E149D391
:10077A0020914C3F30914D3F280F311D20934C3F23
:10078A0030934D3F80914C3F90914D3F8C32914038
:10079A0030F48CE291E080934C3F90934D3F85E09A
:1007AA0094E12FD390E080934A3F90934B3F2CD310
:1007BA008093703F15D38091211180936F3F809170
:0C07CA00201180936E3F8CE39FE334C24B
:1007D600A4E1BFE38C91E8E2FFE3808311968C915C
:1007E6001197818312968C911297828313968C911E
:1007F6001397838314968C911497848315968C9102
:100806001597858316968C911697868317968C91E5
:100816001797878318968C911897808719968C91CD
:10082600199781871A968C911A9782871B968C91B5
:100836001B9783871C968C911C9784871D968C9199
:1008460085878091703F86871786108A80916F3FD3
:0A085600818B80916E3F828B089524
:10086000E0E0F4E0148288E88083108A118A128A1A
:10087000138A148A158A168A178AE0E0F2E0108239
:10088000118281E0828313828FE097E08093603F42
:100890009093613F80E197E080935E3F90935F3F4C
:1008A00081E197E080935C3F90935D3F82E197E028
:1008B00080935A3F90935B3F8EE097E08093583F40
:1008C0009093593F8DE097E08093563F9093573F28
:0208D000089589
:1008D200DC018C91E2E4FFE3808311968C91119705
:1008E200818312968C911297828313968C9113971F
:1008F200838314968C911497848315968C918583A7
:1009020080818093843F81818093833F8281809321
:10091200823F9091833F8091823F890F8093813FF4
:10092200838180937E3F848180937D3F8581809304
:100932007C3F90917D3F80917C3F890F80937B3FEC
:02094200089516
:100944001F920F920FB60F9211242F933F934F9340
:100954005F936F937F938F939F93AF93BF93EF9323
:10096400FF938091460A80FF0AC0E091643FF091B2
:10097400653F309709F0099581E08093460AFF911D
:10098400EF91BF91AF919F918F917F916F915F9103
:100994004F913F912F910F900FBE0F901F9018957C
:1009A4001F920F920FB60F9211242F933F934F93E0
:1009B4005F936F937F938F939F93AF93BF93EF93C3
:1009C400FF9381E080930B06E091523FF091533FF7
:1009D400309709F00995FF91EF91BF91AF919F91E5
:1009E4008F917F916F915F914F913F912F910F90D4
:0809F4000FBE0F901F90189533
:1009FC001F920F920FB60F9211242F933F934F9388
:100A0C005F936F937F938F939F93AF93BF93EF936A
:100A1C00FF9382E080930B06E091503FF091513FA1
:100A2C00309709F00995FF91EF91BF91AF919F918C
:100A3C008F917F916F915F914F913F912F910F907B
:080A4C000FBE0F901F901895DA
:100A54001F920F920FB60F9211242F933F934F932F
:100A64005F936F937F938F939F93AF93BF93EF9312
:100A7400FF93E091623FF091633F309709F009954D
:100A840081E080938A00FF91EF91BF91AF919F9194
:100A94008F917F916F915F914F913F912F910F9023
:080AA4000FBE0F901F90189582
:100AAC0035D187EC96E08DD180E48093020422D07E
:100ABC0038D13DDE8ADD89DE56D11092743F8091AB
:100ACC00743F8823E1F31092743FA89545D17ED1F1
:100ADC008093483F9093493F0CDDD1DA8091733F6E
:100AEC008F5F8093733F8091733F823340F31092FA
:040AFC00733FE5CF90
:100B00001092863F82E08093833F97E19093823FEB
:100B10009FE79093843F99E19093813F9FEB90935F
:100B20007E3F93E090937D3F80937C3F85E0809370
:100B30007B3F10927A3F10926C3F10926D3F109263
:100B4000853F10927F3F1092803F80916C3F909143
:040B50006D3F38C1FC
:100B5400E0E0F6E080818E7F808382858C7F8287CF
:100B640083E083871092523F1092533F1092503F7C
:100B74001092513F118212821382148215821682BE
:100B8400108611861486148A158A128A138A168A84
:080B9400128681E080830895C0
:100B9C00E0E0FAE010A611A612A613A614A615A65C
:100BAC0010A211A283E18183128213821482158216
:100BBC001682178216861186128613868FEF9FEF88
:0C0BCC0086A397A3178685E08083089518
:100BD800E0E4FAE080818E7F80831182108614829F
:100BE80080E593EC8487958712861386168283E1C5
:100BF80097E08093643F9093653F81E0858383E02D
:040C08008083089548
:100C0C0040E068ED80E690E0E6D043E068ED81E6F8
:100C1C0090E0E1D040E068ED82E690E0DCD040E08E
:100C2C0068ED80E790E0D7D040E068ED88E790E091
:020C3C00D2C024
:100C3E00FC01A2E4BFE38C91808311968C911197F5
:100C4E00818312968C911297828313968C911397AF
:100C5E00838314968C911497848315968C91858337
:020C6E000895E7
:100C7000E0E1F8E0108212828DE384878EEF8687B0
:100C800081E681871286158613861092543F109252
:040C9000553F08952F
:100C940080930606809108068160809308068091FF
:100CA400080680FDFCCF80911006909111060895EE
:100CB40045E068ED80E890E092D0E0E8F0E082E082
:0E0CC4008183118612861386108680E00895C3
:100CD20040E068ED80E191E083D0E0E1F1E0128252
:080CE2001382789480E008956C
:100CEA0040E068ED80E091E077D040E868ED81E08F
:080CFA0091E072D080E0089542
:100D0200E0E1F8E0108212821486168611861286BD
:060D12001586138608950A
:100D180079DFA2DD1BDF3EDF5BDFC8DFA5DF6FD039
:060D280038D0DFDFD2CF5E
:100D2E008BE190E080936A3F90936B3F8093683F96
:060D3E009093693F089547
:100D440038068106FD060007D306D806DD06AB0685
:020D540000009D
:0E0D5600009721F08093543F9093553F0895ED
:0E0D64008EE196DF8093663F9093673F08957F
:0E0D7200E091528DF091538D82E092E0099451
:0E0D8000EC0153D051D0CE0151D0CE0150D055
:0C0D8E008091743F8F5F8093743F089544
:0C0D9A00E0EAF0E01082118280E0089591
:0A0DA6008091763F1092763F089589
:0A0DB00080911B088695817008955C
:0A0DBA0080911B0882958170089556
:0A0DC4008093380A9093390A0895CD
:0A0DCE008093643F9093653F089501
:0A0DD8008091663F9091673F0895F7
:080DE200FC0164BF4083089589
:080DEA008FE38093400008959F
:080DF20081E08093803F089529
:060DFA0080931D0808951E
:060E000080911D08089519
:060E060010920110089596
:060E0C00FC018081089545
:060E1200809140000895EC
:020E1800F3C81D
:020E1A00089539
:020E1C00089537
:020E1E00089535
:020E2000089533
:020E2200089531
:020E240008952F
:020E260008952D
:020E280008952B
:020E2A00089529
:020E2C00089527
:020E2E002BD9BE
:02000004008278
:090000001345020000C4030000D6
:00000001FF
