:100000001CC014C481C2EFC011C410C40FC40EC4FC
:100010000DC40CC40BC40AC409C4EEC107C406C491
:1000200005C41AC245C231C001C400C4FFC3FEC327
:10003000FDC3FCC33F003F2A800011241FBECFEF49
:10004000CDBFDFE3DEBFE4E3F0E040E017C0B591F1
:10005000A59135912591059107FD0CC0959185914C
:10006000EF01F92FE82F05900D92A217B307D9F7EA
:10007000FE0104C01D92A217B307E1F7E933F407AC
:0A00800031F7B0D29AC3F894FFCF15
:10008A001F920F920FB60F9211242F933F934F9303
:10009A005F936F937F938F939F93AF93BF93EF93E6
:1000AA00FF9380911B0883FD31C080911B0882FD5C
:1000BA002DC080911B0887FD04C080911B0886FF14
:1000CA0014C080911B0886FF04C080911B0880FF22
:1000DA0054C080911B0886FF04C080911B0880FDD4
:1000EA003CC080911B0887FD1CC0FF91EF91BF9116
:1000FA00AF919F918F917F916F915F914F913F91B6
:10010A002F910F900FBE0F901F90189580911B088A
:10011A0083FD4DC080911B0882FD15C01092223FBD
:10012A00C8CF80911B0881FF4CC08091213F81116B
:10013A0032C080911B0884FF2EC083E080931A0886
:10014A001092213FD2CF82E08093223FE091043F78
:10015A00F091053F85E00995ACCF81E08093213F7E
:10016A001092223FE091043FF091053F09958823C0
:10017A0089F183E080931A08B8CF1092213FE09169
:10018A00043FF091053F84E0099580911B08806C3B
:10019A0080931B08AACFE091043FF091053F83E0CA
:1001AA0009958111CACF86E080931A08C9CF81E0E8
:1001BA008093223FE091043FF091053F85E0099545
:1001CA0078CFE091043FF091053F82E009958823BA
:0C01DA0051F3B3CF86E080931A0887CF62
:1001E6001F920F920FB60F9211242F933F934F93A6
:1001F6005F936F937F938F939F93AF93BF93EF9389
:10020600FF9318993BC01A9933C0199924C01F99B6
:1002160029C01E991AC01B9B05C0E091063FF091AC
:10022600073F09958FEF83B9FF91EF91BF91AF918A
:100236009F918F917F916F915F914F913F912F91F8
:100246000F900FBE0F901F901895E091083FF09108
:10025600093F0995E0CFE0910C3FF0910D3F0995DC
:100266001F9BD7CFE0910A3FF0910B3F0995D1CF65
:10027600E0910E3FF0910F3F0995C7CFE091103FF7
:08028600F091113F0995BFCF73
:10028E008091293F882339F1813069F0C0D1809166
:10029E00233F90E080931C3F90931D3F80911C3F25
:1002AE0090911D3FA5C28091283F8F5F8093283F7C
:1002BE009091283F8091243F981710F01092283F7C
:1002CE009091283F8091253F9817C0F08091273F4D
:1002DE008093233FDCCF8091283F8F5F8093283F10
:1002EE008091283F863588F48091283F853549F0E6
:1002FE008091233F8D5F8093233FC9CF1092233F80
:10030E00C6CF8FEF8093233FC2CF81E08093293FEA
:06031E001092283FBCCF45
:10032400E0E0F4E0148288E88083108A118A128A5B
:10033400138A148A158A168A178AE0E0F2E010827A
:10034400118281E08283138289E194E08093103FDB
:100354009093113F8AE194E080930E3F90930F3F76
:100364008BE194E080930C3F90930D3F8CE194E0FB
:1003740080930A3F90930B3F88E194E08093083F79
:100384009093093F87E194E08093063F9093073F61
:020394000895CA
:10039600823031F1E0F0833089F08530B1F4E091BC
:1003A6009487F0919587099580931E3F80911E3F13
:1003B600813059F080911E3F81E0089580911F3F62
:1003C600E0919087F0919187099581E008958130B9
:1003D600E1F7E0919687F0919787099581E0089576
:1003E600E0919287F0919387099580931F3F81E072
:0203F600089568
:1003F8001F920F920FB60F9211242F933F934F9392
:100408005F936F937F938F939F93AF93BF93EF9374
:10041800FF938091460A80FF0AC0E091143FF09153
:10042800153F309709F0099581E08093460AFF91BE
:10043800EF91BF91AF919F918F917F916F915F9154
:100448004F913F912F910F900FBE0F901F901895CD
:100458001F920F920FB60F9211242F933F934F9331
:100468005F936F937F938F939F93AF93BF93EF9314
:10047800FF9381E080930B06E091023FF091033FE8
:10048800309709F00995FF91EF91BF91AF919F9136
:100498008F917F916F915F914F913F912F910F9025
:0804A8000FBE0F901F90189584
:1004B0001F920F920FB60F9211242F933F934F93D9
:1004C0005F936F937F938F939F93AF93BF93EF93BC
:1004D000FF9382E080930B06E091003FF091013F93
:1004E000309709F00995FF91EF91BF91AF919F91DE
:1004F0008F917F916F915F914F913F912F910F90CD
:080500000FBE0F901F9018952B
:100508001F920F920FB60F9211242F933F934F9380
:100518005F936F937F938F939F93AF93BF93EF9363
:10052800FF93E091123FF091133F309709F009953E
:1005380081E080938A00FF91EF91BF91AF919F91E5
:100548008F917F916F915F914F913F912F910F9074
:080558000FBE0F901F901895D3
:10056000E0E0F6E080818E7F808382858C7F8287C9
:1005700083E083871092023F1092033F1092003F66
:100580001092013F11821282138214821582168208
:10059000108611861486148A158A128A138A168A7E
:0805A000128681E080830895BA
:1005A800E0E0FAE010A611A612A613A614A615A656
:1005B80010A211A283E18183128213821482158210
:1005C8001682178216861186128613868FEF9FEF82
:0C05D80086A397A3178685E08083089512
:1005E400BDD084EE93E00ED180E48093020414D055
:1005F400C0D0E0919A87F0919B878BEC91E00995AC
:100604001092203F8091203F8823E1F31092203FF5
:08061400A895CAD03ADEF6CF2A
:10061C001092293F82E08093263F87E18093253F0B
:10062C008FE78093273F89E18093243F1092233FEB
:10063C0010921C3F10921D3F1092283F80911C3F3E
:06064C0090911D3FD6C095
:10065200E0E4FAE080818E7F80831182108614822A
:1006620080E593EC848795871286138616828DE146
:1006720094E08093143F9093153F81E0858383E05B
:0406820080830895D4
:1006860040E068ED80E690E0C1D043E068ED81E6A9
:1006960090E0BCD040E068ED82E690E0B7D040E064
:1006A60068ED80E790E0B2D040E068ED88E790E042
:0206B600ADC0D5
:1006B800E0E1F8E0108212828DE384878EEF86876E
:1006C80081E681871286158613861092043F109260
:0406D800053F08953D
:1006DC0080930606809108068160809308068091BD
:1006EC00080680FDFCCF80911006909111060895AC
:1006FC0045E068ED80E890E086D0E0E8F0E082E04C
:0E070C008183118612861386108680E0089580
:10071A0040E068ED80E191E077D0E0E1F1E012821B
:08072A001382789480E0089529
:1007320040E068ED80E091E06BD040E868ED81E058
:0807420091E066D080E008950B
:10074A00E0E1F8E01082128214861686118612867B
:06075A00158613860895C8
:1007600092DFE0DDFDDE20DF74DFC8DFA5DF5BD0D8
:0607700031D0DFDFD2CF23
:100776008BE190E080931A3F90931B3F8093183F44
:060786009093193F089555
:10078C005C03A5030D041004F003F503FA03CF0377
:02079C0000005B
:0E079E00009721F08093043F9093053F08954B
:0E07AC008EE196DF8093163F9093173F0895DD
:0E07BA00EC0140D03ED0CE013ED0CE013DD06D
:0C07C8008091203F8F5F8093203F0895B8
:0C07D400E0EAF0E01082118280E008955D
:0A07E0008091223F1092223F0895FD
:0A07EA0080911B0886958170089528
:0A07F40080911B0882958170089522
:0A07FE008093380A9093390A089599
:0A0808008093143F9093153F08956C
:08081200FC0164BF408308955E
:06081A0080931D08089503
:0608200080911D080895FF
:060826001092011008957C
:02082C00E9CB16
:02082E0008952B
:02083000089529
:02083200089527
:02083400089525
:02083600089523
:02083800089521
:02083A0008951F
:02083C0008951D
:02083E0008951B
:02084000089519
:0208420021DCB7
:02000004008278
:090000001345020000C4030000D6
:00000001FF
