:100000001CC00FC711C540C30CC70BC70AC709C71F
:1000100008C707C706C705C704C77EC402C701C70C
:1000200000C7AAC4D5C445C1FCC6FBC6FAC6F9C6FA
:10003000F8C6F7C63F003FCF800011241FBECFEFA8
:10004000CDBFDFE3DEBFE4E3F0E040E017C0B591F1
:10005000A59135912591059107FD0CC0959185914C
:10006000EF01F92FE82F05900D92A217B307D9F7EA
:10007000FE0104C01D92A217B307E1F7E933F407AC
:0A00800031F7AED27AC6F894FFCF34
:10008A0085E1E4E5FFE3DF01982F1D929A95E9F7F0
:10009A00F894E5E1FFE3A9E6BFE3982F01900D92FA
:1000AA009A95E1F7E0E0FFE3AFE3BFE301900D9239
:1000BA008A95E1F7789480913F3F882339F08091BF
:1000CA00693F80937E3F81E08093543F8091413F16
:1000DA00811150C08091423F81114CC08091473FAD
:1000EA00811105C08091483F882309F451C086E0F8
:1000FA00E1E7FFE3A6E8BFE301900D928A95E1F7F5
:10010A0086E89FE3CBD346E050E061E070E08CE5FF
:10011A009FE309D68091403F81114CC08091433FB3
:10012A0081115AC08091443F811170C08091453F2E
:10013A008111A0C08091463F811182C0F89485E167
:10014A00EEE7FFE3AAE2BFE301900D928A95E1F799
:10015A00E4E5FFE3CF0184559F432191222321F057
:10016A00DC01A050B14C1C92AFE3E936FA0791F7D3
:10017A007894089580916B3F90916C3F8093803F73
:10018A009093813F81E08093563F8093573FA6CF5B
:10019A008091493F8111ABCF80910B3F8111A7CF4D
:1001AA0080910C3F8111A3CF80910D3F882309F4E0
:1001BA00B1CF9DCF60916A3F60937F3F80E094E129
:1001CA0061D5F5D28111BACF80916A3F80937F3F82
:1001DA0081E08093553FB2CF60916D3F6093823F3B
:1001EA0080E094E14FD5E3D28111A8CF8091443FBA
:1001FA00811108C080916D3F90916E3F8093823F3C
:10020A009093833F81E08093583F98CF60916E3FEF
:10021A006093833F80E094E135D5C9D281118ECFB6
:10022A008091433F811108C080916D3F90916E3F4C
:10023A008093823F9093833F81E08093593F7ECFA2
:10024A006091703F6093853F80E094E11BD5AFD207
:10025A00811174CF8091453F811108C080916F3F11
:10026A009091703F8093843F9093853F81E0809383
:10027A005B3F64CF60916F3F6093843F80E094E17D
:10028A0001D595D281115ACF8091463F811108C07C
:10029A0080916F3F9091703F8093843F9093853F08
:0802AA0081E080935A3F4ACF26
:1002B2001F920F920FB60F9211242F933F934F93D9
:1002C2005F936F937F938F939F93AF93BF93EF93BC
:1002D200FF9380911B0883FD31C080911B0882FD32
:1002E2002DC080911B0887FD04C080911B0886FFEA
:1002F20014C080911B0886FF04C080911B0880FFF8
:1003020054C080911B0886FF04C080911B0880FDA9
:100312003CC080911B0887FD1CC0FF91EF91BF91EB
:10032200AF919F918F917F916F915F914F913F918B
:100332002F910F900FBE0F901F90189580911B0860
:1003420083FD4DC080911B0882FD15C01092BC3FF9
:10035200C8CF80911B0881FF4CC08091BB3F8111A7
:1003620032C080911B0884FF2EC083E080931A085C
:100372001092BB3FD2CF82E08093BC3FE0919D3F81
:10038200F0919E3F85E00995ACCF81E08093BB3F21
:100392001092BC3FE0919D3FF0919E3F09958823CA
:1003A20089F183E080931A08B8CF1092BB3FE091A5
:1003B2009D3FF0919E3F84E0099580911B08806CDF
:1003C20080931B08AACFE0919D3FF0919E3F83E06E
:1003D20009958111CACF86E080931A08C9CF81E0BE
:1003E2008093BC3FE0919D3FF0919E3F85E009954F
:1003F20078CFE0919D3FF0919E3F82E0099588235E
:0C04020051F3B3CF86E080931A0887CF37
:10040E00CF93DF93C82F8330E1F1D8F4813071F1AF
:10041E00823099F48091C13F882309F457C010921D
:10042E00C13FE091248DF091258D09958093C03FB9
:10043E008091C03F853108F05CC081E0DF91CF91A3
:10044E0008958430C1F18530C1F7E091268DF09189
:10045E00278D09958093BF3F8091BF3F813069F30F
:10046E008091BF3F81E0DF91CF910895E091288D7B
:10047E00F091298D0995811125C0C093C13F81E06E
:10048E00DDCFE091C03FF0E0E65DF04C8081E09181
:10049E00228DF091238D09958091C03F8F5F8093BF
:1004AE00C03F8091C03F853140F21092C03F81E045
:1004BE00DF91CF9108951092C03F96D481E0DF91E5
:1004CE00CF9108951092C13F81E0B8CFC091C03F47
:1004DE00D0E0E091248DF091258D0995CB5ED04C26
:1004EE008883E091C03FF0E0E050F14C81E08083E2
:0A04FE00D3CF1092C03F80E0A1CFE1
:100508008091CE3F882309F442C0813069F0B4D28B
:100518008091C23F90E08093B73F9093B83F80911D
:10052800B73F9091B83F4CC48091CD3F8F5F809387
:10053800CD3F9091CD3F8091C93F981710F0109210
:10054800CD3F9091CD3F8091CA3F981798F5109272
:10055800C23F8091C83F8823D9F28091C73F8F5FFF
:100568008093C73F9091C73F8091C33F981720F071
:100578001092C73F1092C83F9091C73F8091C43FE7
:10058800981738F18091C63F8093C23FC1CF8091C0
:10059800CD3F8F5F8093CD3F8091CD3F863598F4D6
:1005A8008091CD3F853559F08091C23F8D5F809312
:1005B800C23FAECF8091CC3F8093C23FCACF8FEF6E
:1005C8008093C23FA5CF81E08093CE3F1092CD3F6C
:0805D8009FCF1092C23F9CCF9F
:1005E00088D384EC96E0F5D380E48093020448D26B
:1005F0008BD314D49DD092D285E1EEE7FFE3AAE23B
:10060000BFE301900D928A95E1F7B0D31092BA3F03
:100610008091BA3F8823E1F31092BA3FA8959FD307
:10062000DDD380938D3F90938E3F6EDF2EDD8091E2
:100630007E3F813131F1813221F1813031F41092EC
:10064000803F1092813F10927E3F8091B93F8F5F33
:100650008093B93F8091B93F8233D0F21092B93F75
:100660008091803F9091813F2091823F3091833FE4
:100670008217930768F601968093803F9093813F9D
:08068000C7CF10927E3FE1CFCD
:100688001F920F920FB60F9211242F933F934F93FF
:100698005F936F937F938F939F93AF93BF93EF93E2
:1006A800FF9318993BC01A9933C0199924C01F9910
:1006B80029C01E991AC01B9B05C0E0919F3FF0916D
:1006C800A03F09958FEF83B9FF91EF91BF91AF914B
:1006D8009F918F917F916F915F914F913F912F9152
:1006E8000F900FBE0F901F901895E091A13FF091C9
:1006F800A23F0995E0CFE091A53FF091A63F09956B
:100708001F9BD7CFE091A33FF091A43F0995D1CF8C
:10071800E091A73FF091A83F0995C7CFE091A93F85
:08072800F091AA3F0995BFCF33
:1007300010927E3F80E094E16BD380937F3F1092D4
:10074000803F1092813F81E094E162D38093823FA9
:1007500082E094E15DD38093833F8091823F9091CA
:10076000833F8C32914030F48CE291E08093823F61
:100770009093833F85E094E14BD38093843F86E060
:1007800094E146D38093853F86E89FE336D243D3F6
:1007900080938C3F2CD310928D3F10928E3F80918E
:1007A000211180938F3F809120118093903F109270
:0807B000913F1092923F089561
:1007B800CF93C091BD3FC23049F0C33029F1C13059
:1007C800D1F0C11114C08C2FCF9108958091B53FFD
:1007D8009091B63F19D36091BE3F861709F1809179
:1007E800B53F9091B63FB0D283E08093BD3FC1E062
:1007F8008C2FCF910895DFD281110AC082E08093B7
:10080800BD3F8C2FCF910895D6D2882349F0C1E0FF
:100818008091BD3F8111D7CFC0E08C2FCF91089533
:0C0828001092BD3FC0E08C2FCF910895CE
:10083400E0E0F4E0148288E88083108A118A128A46
:10084400138A148A158A168A178AE0E0F2E0108265
:10085400118281E08283138284E197E08093A93F2F
:100864009093AA3F85E197E08093A73F9093A83F98
:1008740086E197E08093A53F9093A63F87E197E0B8
:100884008093A33F9093A43F83E197E08093A13F9B
:100894009093A23F82E197E080939F3F9093A03F83
:0208A4000895B5
:1008A600DC018C91E3E9FFE3808311968C9111972B
:1008B600818312968C911297828313968C9113974B
:1008C600838314968C911497848315968C918583D3
:1008D60080818093CC3F81818093CB3F82818093BE
:1008E600CA3F9091CB3F8091CA3F890F8093C93F01
:1008F60083818093C63F84818093C53F85818093A1
:10090600C43F9091C53F8091C43F890F8093C33FF8
:02091600089542
:100918001F920F920FB60F9211242F933F934F936C
:100928005F936F937F938F939F93AF93BF93EF934F
:10093800FF938091460A80FF0AC0E091AD3FF09195
:10094800AE3F309709F0099581E08093460AFF9100
:10095800EF91BF91AF919F918F917F916F915F912F
:100968004F913F912F910F900FBE0F901F901895A8
:100978001F920F920FB60F9211242F933F934F930C
:100988005F936F937F938F939F93AF93BF93EF93EF
:10099800FF9381E080930B06E0919B3FF0919C3F91
:1009A800309709F00995FF91EF91BF91AF919F9111
:1009B8008F917F916F915F914F913F912F910F9000
:0809C8000FBE0F901F9018955F
:1009D0001F920F920FB60F9211242F933F934F93B4
:1009E0005F936F937F938F939F93AF93BF93EF9397
:1009F000FF9382E080930B06E091993FF0919A3F3C
:100A0000309709F00995FF91EF91BF91AF919F91B8
:100A10008F917F916F915F914F913F912F910F90A7
:080A20000FBE0F901F90189506
:100A28001F920F920FB60F9211242F933F934F935B
:100A38005F936F937F938F939F93AF93BF93EF933E
:100A4800FF93E091AB3FF091AC3F309709F00995E7
:100A580081E080938A00FF91EF91BF91AF919F91C0
:100A68008F917F916F915F914F913F912F910F904F
:080A78000FBE0F901F901895AE
:100A80001092CE3F82E08093CB3F97E19093CA3F94
:100A90009FE79093CC3F99E19093C93F9FEB909350
:100AA000C63F93E09093C53F8093C43F85E0809319
:100AB000C33F1092C23F1092B73F1092B83F1092BE
:100AC000CD3F1092C73F1092C83F8091B73F9091A1
:040AD000B83F7AC1F0
:100AD400E0E0F6E080818E7F808382858C7F828750
:100AE40083E0838710929B3F10929C3F1092993F22
:100AF40010929A3F118212821382148215821682F6
:100B0400108611861486148A158A128A138A168A04
:080B1400128681E08083089540
:100B1C0085E1EEE7FFE3A5E1BFE301900D928A9535
:100B2C00E1F78EE090E0FC01EB5EF04C80830196E7
:100B3C0085319105C1F780E090E0FC01E050F14C6B
:0C0B4C001082019685319105C1F70895D3
:100B5800E0E0FAE010A611A612A613A614A615A6A0
:100B680010A211A283E1818312821382148215825A
:100B78001682178216861186128613868FEF9FEFCC
:0C0B880086A397A3178685E0808308955C
:100B9400E0E4FAE080818E7F8083118210861482E3
:100BA40080E593EC8487958712861386168288E104
:100BB40097E08093AD3F9093AE3F81E0858383E0DF
:040BC400808308958D
:100BC80040E068ED80E690E00AD143E068ED81E618
:100BD80090E005D140E068ED82E690E000D140E089
:100BE80068ED80E790E0FBD040E068ED88E790E0B2
:020BF800F6C045
:100BFA00FC01A3E9BFE38C91808311968C91119734
:100C0A00818312968C911297828313968C911397F3
:100C1A00838314968C911497848315968C9185837B
:020C2A0008952B
:100C2C00E0E1F8E0108212828DE384878EEF8687F4
:100C3C0081E6818712861586138610929D3F10924D
:040C4C009E3F08952A
:100C50008093060680910806816080930806809143
:100C6000080680FDFCCF8091100690911106089532
:100C700045E068ED80E890E0B6D0E0E8F0E082E0A2
:0E0C80008183118612861386108680E0089507
:100C8E009C019091BD3F911109C02093B53F3093C7
:0E0C9E00B63F6093BE3F81E08093BD3F089556
:100CAC0040E068ED80E191E098D0E0E1F1E0128263
:080CBC001382789480E0089592
:100CC40040E068ED80E091E08CD040E868ED81E0A0
:080CD40091E087D080E0089553
:100CDC00E0E1F8E0108212821486168611861286E4
:060CEC0015861386089531
:100CF2006ADF9FDDEEDE2FDF4CDFB9DF96DF84D0C7
:060D020048D0DFDFD2CF74
:100D08008BE190E08093B33F9093B43F8093B13FE1
:060D18009093B23F089524
:100D1E0016066E06FF060207D006D506DA06A106EF
:020D2E000000C3
:100D3000FC01480F591FE417F50711F06193FBCF31
:020D4000089514
:0E0D4200009721F080939D3F90939E3F08956F
:0E0D5000FC01608343E06DE980E090E144C067
:0E0D5E008EE177DF8093AF3F9093B03F089512
:0E0D6C00E0912C8DF0912D8D87E092E009949E
:0E0D7A00EC015BD059D0CE0159D0CE0158D03B
:0C0D88008091BA3F8F5F8093BA3F0895BE
:0C0D9400E0EAF0E01082118280E0089597
:0A0DA0008091BC3F1092BC3F089503
:0A0DAA0080911B0886958170089562
:0A0DB40080911B088295817008955C
:0A0DBE00809102108695817008955F
:0A0DC8008093380A9093390A0895C9
:0A0DD2008093AD3F9093AE3F08956B
:0A0DDC008091AF3F9091B03F089561
:080DE600FC0164BF4083089585
:080DEE008FE38093400008959B
:080DF60081E08093C83F0895DD
:060DFE0080931D0808951A
:060E040080911D08089515
:060E0A0010920110089592
:060E1000FC018081089541
:060E1600809140000895E8
:060E1C001092BD3F089595
:020E2200EEC818
:020E240008952F
:020E260008952D
:020E280008952B
:020E2A00089529
:020E2C00089527
:020E2E00089525
:020E3000089523
:020E3200089521
:020E340008951F
:020E360008951D
:020E380026D9B9
:02000004008278
:090000001345020000C4030000D6
:00000001FF
