:100000001CC069C731C5F3C266C765C764C763C78B
:1000100062C761C760C75FC75EC772C45CC75BC7A2
:100020005AC7CAC4F5C450C156C755C754C753C7E9
:1000300052C751C73F003FD9800011241FBECFEFE8
:10004000CDBFDFE3DEBFE4E3F0E040E017C0B591F1
:10005000A59135912591059107FD0CC0959185914C
:10006000EF01F92FE82F05900D92A217B307D9F7EA
:10007000FE0104C01D92A217B307E1F7E933F407AC
:0A00800031F76ED4CFC6F894FFCF1D
:10008A0086E1EFE6FFE3DF01982F1D929A95E9F7E3
:10009A00F894E7E1FFE3A9E5BFE3982F01900D92F9
:1000AA009A95E1F7E0E0FFE3A3E4BFE301900D9244
:1000BA008A95E1F778948091433F882339F08091BB
:1000CA00593F8093853F81E080936F3F8091443F01
:1000DA00882339F080915A3F8093863F81E080934C
:1000EA00703F8091463F811150C08091473F8111F6
:1000FA004CC080914C3F811105C080914D3F8823AF
:10010A0009F451C086E0E2E6FFE3AEE8BFE30190FE
:10011A000D928A95E1F78EE89FE3B4D346E050E06A
:10012A0061E070E088E79FE353D68091453F8111F3
:10013A004CC08091483F81115AC08091493F81113A
:10014A0070C080914A3F8111A0C080914B3F8111BC
:10015A0082C0F89486E1E5E8FFE3ADE2BFE30190EF
:10016A000D928A95E1F7EFE6FFE3CF018F569F43A1
:10017A002191222321F0DC01A050B14C1C92AFE363
:10018A00E538FA0791F77894089580915C3F909149
:10019A005D3F8093883F9093893F81E08093723FCF
:1001AA008093733FA6CF80914E3F8111ABCF809150
:1001BA004F3F8111A7CF8091503F8111A3CF8091EA
:1001CA00513F882309F4B1CF9DCF60915B3F609383
:1001DA00873F80E094E191D5DED28111BACF809138
:1001EA005B3F8093873F81E08093713FB2CF6091FC
:1001FA005E3F60938A3F80E094E17FD5CCD2811143
:10020A00A8CF8091493F811108C080915E3F9091AB
:10021A005F3F80938A3F90938B3F81E08093743F46
:10022A0098CF60915F3F60938B3F80E094E165D502
:10023A00B2D281118ECF8091483F811108C080913E
:10024A005E3F90915F3F80938A3F90938B3F81E01E
:10025A008093753F7ECF6091613F60938D3F80E0D0
:10026A0094E14BD598D2811174CF80914A3F811184
:10027A0008C08091603F9091613F80938C3F90933A
:10028A008D3F81E08093773F64CF6091603F6093B8
:10029A008C3F80E094E131D57ED281115ACF809192
:1002AA004B3F811108C08091603F9091613F8093DC
:0E02BA008C3F90938D3F81E08093763F4ACF3A
:1002C8001F920F920FB60F9211242F933F934F93C3
:1002D8005F936F937F938F939F93AF93BF93EF93A6
:1002E800FF9380911B0883FD31C080911B0882FD1C
:1002F8002DC080911B0887FD04C080911B0886FFD4
:1003080014C080911B0886FF04C080911B0880FFE1
:1003180054C080911B0886FF04C080911B0880FD93
:100328003CC080911B0887FD1CC0FF91EF91BF91D5
:10033800AF919F918F917F916F915F914F913F9175
:100348002F910F900FBE0F901F90189580911B084A
:1003580083FD4DC080911B0882FD15C01092C73FD8
:10036800C8CF80911B0881FF4CC08091C63F811186
:1003780032C080911B0884FF2EC083E080931A0846
:100388001092C63FD2CF82E08093C73FE091A53F4D
:10039800F091A63F85E00995ACCF81E08093C63FF8
:1003A8001092C73FE091A53FF091A63F0995882399
:1003B80089F183E080931A08B8CF1092C63FE09184
:1003C800A53FF091A63F84E0099580911B08806CB9
:1003D80080931B08AACFE091A53FF091A63F83E048
:1003E80009958111CACF86E080931A08C9CF81E0A8
:1003F8008093C73FE091A53FF091A63F85E009951E
:1004080078CFE091A53FF091A63F82E00995882337
:0C04180051F3B3CF86E080931A0887CF21
:10042400CF93DF93C82F8330B1F1D8F4813041F1F9
:10043400823099F48091CB3F882309F453C0109201
:10044400CB3FE091CE8DF091CF8D09958093CA3F3B
:100454008091CA3F863108F058C081E0DF91CF9186
:100464000895843091F18530C1F7E091D08DF091F9
:10047400D18D09958093163F81E0DF91CF91089546
:10048400E091D28DF091D38D0995811127C0C0934D
:10049400CB3F81E0E3CFE091CA3FF0E0E35DF04C75
:1004A4008081E091CC8DF091CD8D09958091CA3FEA
:1004B4008F5F8093CA3F8091CA3F863170F2109259
:1004C400CA3F81E0DF91CF9108951092CA3FEBD4E7
:1004D4001092163F81E0DF91CF9108951092CB3FA7
:1004E40081E0BCCFC091CA3FD0E0E091CE8DF091C5
:1004F400CF8D0995C95ED04C8883E091CA3FF0E066
:10050400E050F14C81E08083D1CF1092CA3F80E06B
:02051400A5CF71
:100516008091D83F882309F442C0813069F0CDD25A
:100526008091CC3F90E08093BF3F9093C03F8091F5
:10053600BF3F9091C03F9FC48091D73F8F5F80930C
:10054600D73F9091D73F8091D33F981710F01092E4
:10055600D73F9091D73F8091D43F981798F5109246
:10056600CC3F8091D23F8823D9F28091D13F8F5FD3
:100576008093D13F9091D13F8091CD3F981720F045
:100586001092D13F1092D23F9091D13F8091CE3FB1
:10059600981738F18091D03F8093CC3FC1CF80919E
:1005A600D73F8F5F8093D73F8091D73F863598F4AA
:1005B6008091D73F853559F08091CC3F8D5F8093F0
:1005C600CC3FAECF8091D63F8093CC3FCACF8FEF42
:1005D6008093CC3FA5CF81E08093D83F1092D73F40
:0805E6009FCF1092CC3F9CCF87
:1005EE001F920F920FB60F9211242F933F934F939A
:1005FE005F936F937F938F939F93AF93BF93EF937D
:10060E00FF9318993BC01A9933C0199924C01F99AA
:10061E0029C01E991AC01B9B05C0E091A73FF091FF
:10062E00A83F09958FEF83B9FF91EF91BF91AF91DD
:10063E009F918F917F916F915F914F913F912F91EC
:10064E000F900FBE0F901F901895E091A93FF0915B
:10065E00AA3F0995E0CFE091AD3FF091AE3F0995ED
:10066E001F9BD7CFE091AB3FF091AC3F0995D1CF17
:10067E00E091AF3FF091B03F0995C7CFE091B13F08
:08068E00F091B23F0995BFCFC6
:100696001092853F8EE18093863F80E094E10FD4EF
:1006A6008093873F1092883F1092893F81E094E1C2
:1006B60006D480938A3F82E094E101D480938B3FF5
:1006C60080918A3F90918B3F8C32914030F48CE23E
:1006D60091E080938A3F90938B3F85E094E1EFD33E
:1006E60080938C3F86E094E1EAD380938D3F8EE839
:1006F6009FE3BBD2E7D38093943FD0D31092953F2C
:100706001092963F809121118093973F80912011FE
:0E0716008093983F1092993F10929A3F089559
:100724008091883F9091893F20918A3F30918B3FFF
:1007340082179307D0F081E08093C33F1092C23FA9
:1007440080E48093060480930104809306048091DE
:10075400163F8823F1F08091C13F8823F1F0815046
:100764008093C13F8823C9F0089501968093883F00
:100774009093893F8091C33F882349F38091C23F7E
:100784008823F1F281508093C23F8091163F8111FA
:0C079400E2CF8EE18093C13F089569C35D
:1007A000CF93C091C83FC23049F0C33029F1C13066
:1007B000D1F0C11114C08C2FCF9108958091BD3F0D
:1007C0009091BE3F7FD36091C93F861709F1809118
:1007D000BD3F9091BE3F18D383E08093C83FC1E0F6
:1007E0008C2FCF91089540D381110AC082E080936D
:1007F000C83F8C2FCF91089537D3882349F0C1E0AB
:100800008091C83F8111D7CFC0E08C2FCF91089540
:0C0810001092C83FC0E08C2FCF910895DB
:10081C00E0E0F4E0148288E88083108A118A128A5E
:10082C00138A148A158A168A178AE0E0F2E010827D
:10083C00118281E0828313828EE697E08093B13F30
:10084C009093B23F8FE697E08093AF3F9093B03F89
:10085C0080E797E08093AD3F9093AE3F81E797E0C0
:10086C008093AB3F9093AC3F8DE697E08093A93F8C
:10087C009093AA3F8CE697E08093A73F9093A83F74
:02088C000895CD
:10088E00DC018C91EBE9FFE3808311968C9111973B
:10089E00818312968C911297828313968C91139763
:1008AE00838314968C911497848315968C918583EB
:1008BE0080818093D63F81818093D53F82818093C2
:1008CE00D43F9091D53F8091D43F890F8093D33FF1
:1008DE0083818093D03F84818093CF3F85818093A5
:1008EE00CE3F9091CF3F8091CE3F890F8093CD3FE9
:0208FE0008955B
:100900001F920F920FB60F9211242F933F934F9384
:100910005F936F937F938F939F93AF93BF93EF9367
:10092000FF938091460A80FF0AC0E091B53FF091A5
:10093000B63F309709F0099581E08093460AFF9110
:10094000EF91BF91AF919F918F917F916F915F9147
:100950004F913F912F910F900FBE0F901F901895C0
:100960001DD289E197E08FD280E480930204109237
:10097000C33F1092C23F8EE18093C13FA1D019D2F4
:10098000A7D2DDD1CED11092C53F8091C53F88233B
:10099000E1F31092C53FA8953ED2BDDD27D28091EC
:1009A000C43F8F5F8093C43F8091C43F823368F31C
:0809B0001092C43FB7DEE9CF4D
:1009B8001F920F920FB60F9211242F933F934F93CC
:1009C8005F936F937F938F939F93AF93BF93EF93AF
:1009D800FF9381E080930B06E091A33FF091A43F41
:1009E800309709F00995FF91EF91BF91AF919F91D1
:1009F8008F917F916F915F914F913F912F910F90C0
:080A08000FBE0F901F9018951E
:100A10001F920F920FB60F9211242F933F934F9373
:100A20005F936F937F938F939F93AF93BF93EF9356
:100A3000FF9382E080930B06E091A13FF091A23FEB
:100A4000309709F00995FF91EF91BF91AF919F9178
:100A50008F917F916F915F914F913F912F910F9067
:080A60000FBE0F901F901895C6
:100A68001F920F920FB60F9211242F933F934F931B
:100A78005F936F937F938F939F93AF93BF93EF93FE
:100A8800FF93E091B33FF091B43F309709F0099597
:100A980081E080938A00FF91EF91BF91AF919F9180
:100AA8008F917F916F915F914F913F912F910F900F
:080AB8000FBE0F901F9018956E
:100AC0001092D83F82E08093D53F97E19093D43F36
:100AD0009FE79093D63F99E19093D33F9FEB9093FC
:100AE000D03F93E09093CF3F8093CE3F85E08093BB
:100AF000CD3F1092CC3F1092BF3F1092C03F10925A
:100B0000D73F1092D13F1092D23F8091BF3F90913A
:040B1000C03FB4C16D
:100B1400E0E0F6E080818E7F808382858C7F82870F
:100B240083E083871092A33F1092A43F1092A13FC9
:100B34001092A23F118212821382148215821682AD
:100B4400108611861486148A158A128A138A168AC4
:080B5400128681E08083089500
:100B5C0086E1E5E8FFE3A7E1BFE301900D928A95FA
:100B6C00E1F78EE090E0FC01E95EF04C80830196A9
:100B7C0086319105C1F780E090E0FC01E050F14C2A
:0C0B8C001082019686319105C1F7089592
:100B9800E0E0FAE010A611A612A613A614A615A660
:100BA80010A211A283E1818312821382148215821A
:100BB8001682178216861186128613868FEF9FEF8C
:0C0BC80086A397A3178685E0808308951C
:100BD4008091853F8131B1F0813251F0813009F04B
:100BE40008951092883F1092893F1092853F08958E
:100BF4001092853F81E08093C33F8091863F80932C
:060C0400C23F089534C157
:100C0A00E0E4FAE080818E7F80831182108614826C
:100C1A0080E593EC8487958712861386168282E78D
:100C2A0097E08093B53F9093B63F81E0858383E058
:040C3A008083089516
:100C3E0040E068ED80E690E029D143E068ED81E682
:100C4E0090E024D140E068ED82E690E01FD140E0D4
:100C5E0068ED80E790E01AD140E068ED88E790E01B
:020C6E0015C1AE
:100C7000FC01ABE9BFE38C91808311968C911197B5
:100C8000818312968C911297828313968C9113977D
:100C9000838314968C911497848315968C91858305
:020CA0000895B5
:100CA200E0E1F8E0108212828DE384878EEF86877E
:100CB20081E681871286158613861092A53F1092CF
:040CC200A63F0895AC
:100CC60080930606809108068160809308068091CD
:100CD600080680FDFCCF80911006909111060895BC
:100CE60045E068ED80E890E0D5D0E0E8F0E082E00D
:0E0CF6008183118612861386108680E0089591
:100D04009C019091C83F911109C02093BD3F30933D
:0E0D1400BE3F6093C93F81E08093C83F0895C1
:100D2200CF93DF93C8ECDDE8EE85FF8582E192E0A8
:0C0D32000995E881F981DF91CF910994C7
:100D3E00ABDC0DDF86E1E5E8FFE3ADE2BFE301905A
:080D4E000D928A95E1F708956A
:100D560040E068ED80E191E09DD0E0E1F1E01282B3
:080D66001382789480E00895E7
:100D6E0040E068ED80E091E091D040E868ED81E0F0
:080D7E0091E08CD080E00895A3
:100D8600E0E1F8E010821282148616861186128639
:060D960015861386089586
:100D9C0050DF3EDDB9DEFADE32DF9FDF7CDF89D04B
:060DAC0048D0DFDFD2CFCA
:100DB2008BE190E08093BB3F9093BC3F8093B93F1F
:060DC2009093BA3F089572
:100DC8005106C30659075C0725072A072F07FD06A2
:020DD800000019
:100DDA00FC01480F591FE417F50711F06193FBCF87
:020DEA0008956A
:0E0DEC0051D08093953F9093963F49D9EDCE1C
:0E0DFA00009721F08093A53F9093A63F0895A7
:0E0E0800FC01608343E06DE980E090E142C0B0
:0E0E16008EE156DF8093B73F9093B83F08956A
:0E0E2400EC0160D05ED0CE015ED0CE015DD07C
:0C0E32008091C53F8F5F8093C53F0895FD
:0C0E3E00E0EAF0E01082118280E00895EC
:0A0E4A008091C73F1092C73F089542
:0A0E540080911B08869581700895B7
:0A0E5E0080911B08829581700895B1
:0A0E680080910210869581700895B4
:0A0E720041E068ED81E490E00FC05C
:0A0E7C008093380A9093390A089514
:0A0E86008093B53F9093B63F0895A6
:0A0E90008091B73F9091B83F08959C
:080E9A00FC0164BF40830895D0
:080EA2008FE3809340000895E6
:080EAA0081E08093D23F08951E
:060EB20080931D08089565
:060EB80080911D08089561
:060EBE00109201100895DE
:060EC400FC01808108958D
:060ECA0080914000089534
:060ED0001092C83F0895D6
:020ED60094C8BE
:020ED80008957B
:020EDA00089579
:020EDC00089577
:020EDE00089575
:020EE000089573
:020EE200089571
:020EE40008956F
:020EE60008956D
:020EE80008956B
:020EEA00089569
:020EEC00CCD860
:02000004008278
:090000001345020000C4030000D6
:00000001FF
