:100000001CC08FC4E1C2CBC18CC48BC48AC489C458
:1000100088C487C486C485C484C44EC282C481C4D3
:1000200080C47AC2A5C231C07CC47BC47AC479C4FE
:1000300078C477C43F003F46800011241FBECFEF35
:10004000CDBFDFE3DEBFE4E3F0E040E017C0B591F1
:10005000A59135912591059107FD0CC0959185914C
:10006000EF01F92FE82F05900D92A217B307D9F7EA
:10007000FE0104C01D92A217B307E1F7E933F407AC
:0A00800031F71CD315C4F894FFCF2C
:10008A001F920F920FB60F9211242F933F934F9303
:10009A005F936F937F938F939F93AF93BF93EF93E6
:1000AA00FF9380911B0883FD31C080911B0882FD5C
:1000BA002DC080911B0887FD04C080911B0886FF14
:1000CA0014C080911B0886FF04C080911B0880FF22
:1000DA0054C080911B0886FF04C080911B0880FDD4
:1000EA003CC080911B0887FD1CC0FF91EF91BF9116
:1000FA00AF919F918F917F916F915F914F913F91B6
:10010A002F910F900FBE0F901F90189580911B088A
:10011A0083FD4DC080911B0882FD15C01092353FAA
:10012A00C8CF80911B0881FF4CC08091343F811158
:10013A0032C080911B0884FF2EC083E080931A0886
:10014A001092343FD2CF82E08093353FE091183F3E
:10015A00F091193F85E00995ACCF81E08093343F57
:10016A001092353FE091183FF091193F0995882385
:10017A0089F183E080931A08B8CF1092343FE09156
:10018A00183FF091193F84E0099580911B08806C13
:10019A0080931B08AACFE091183FF091193F83E0A2
:1001AA0009958111CACF86E080931A08C9CF81E0E8
:1001BA008093353FE091183FF091193F85E009950A
:1001CA0078CFE091183FF091193F82E00995882392
:0C01DA0051F3B3CF86E080931A0887CF62
:1001E600CF93DF93C82F833091F1E0F4813009F487
:1001F60048C0823099F48091383F882309F44CC076
:100206001092383FE0917A88F0917B880995809327
:10021600373F8091373F843108F04EC081E0DF914F
:10022600CF910895843039F18530C1F7E0917C880B
:10023600F0917D8809958093363F8091363F8130D5
:1002460069F38091363F81E0DF91CF910895E09187
:10025600373FF0E0E050F14C8081E0917888F091F2
:10026600798809958091373F8F5F8093373F8091DA
:10027600373F843198F21092373F81E0DF91CF917A
:100286000895E0917E88F0917F880995811110C0CC
:10029600C093383F81E0C3CFC091373FD0E0E091B3
:1002A6007A88F0917B880995C050D14C8883DACF43
:1002B6001092383F81E0B3CF1092373F80E0AFCF46
:1002C6008091453F882309F442C0813069F0A5D169
:1002D6008091393F90E08093303F9093313F8091F9
:1002E600303F9091313F03C38091443F8F5F8093AD
:1002F600443F9091443F8091403F981710F01092F0
:10030600443F9091443F8091413F981798F5109251
:10031600393F80913F3F8823D9F280913E3F8F5FDE
:1003260080933E3F90913E3F80913A3F981720F050
:1003360010923E3F10923F3F90913E3F80913B3F4F
:10034600981738F180913D3F8093393FC1CF809116
:10035600443F8F5F8093443F8091443F863598F4B5
:100366008091443F853559F08091393F8D5F809368
:10037600393FAECF8091433F8093393FCACF8FEF4D
:100386008093393FA5CF81E08093453F1092443F4B
:080396009FCF1092393F9CCF6C
:10039E001F920F920FB60F9211242F933F934F93EC
:1003AE005F936F937F938F939F93AF93BF93EF93CF
:1003BE00FF9318993BC01A9933C0199924C01F99FD
:1003CE0029C01E991AC01B9B05C0E0911A3FF091DF
:1003DE001B3F09958FEF83B9FF91EF91BF91AF91BD
:1003EE009F918F917F916F915F914F913F912F913F
:1003FE000F900FBE0F901F901895E0911C3FF0913B
:10040E001D3F0995E0CFE091203FF091213F0995E6
:10041E001F9BD7CFE0911E3FF0911F3F0995D1CF83
:10042E00E091223FF091233F0995C7CFE091243F01
:08043E00F091253F0995BFCFA5
:10044600E0E0F4E0148288E88083108A118A128A38
:10045600138A148A158A168A178AE0E0F2E0108257
:10046600118281E08283138284E994E08093243FA1
:100476009093253F85E994E08093223F9093233F14
:1004860086E994E08093203F9093213F87E994E0AA
:1004960080931E3F90931F3F83E994E080931C3F17
:1004A60090931D3F82E994E080931A3F90931B3FFF
:0204B6000895A7
:1004B8001F920F920FB60F9211242F933F934F93D1
:1004C8005F936F937F938F939F93AF93BF93EF93B4
:1004D800FF938091460A80FF0AC0E091283FF0917F
:1004E800293F309709F0099581E08093460AFF91EA
:1004F800EF91BF91AF919F918F917F916F915F9194
:100508004F913F912F910F900FBE0F901F9018950C
:100518001F920F920FB60F9211242F933F934F9370
:100528005F936F937F938F939F93AF93BF93EF9353
:10053800FF9381E080930B06E091163FF091173FFF
:10054800309709F00995FF91EF91BF91AF919F9175
:100558008F917F916F915F914F913F912F910F9064
:080568000FBE0F901F901895C3
:100570001F920F920FB60F9211242F933F934F9318
:100580005F936F937F938F939F93AF93BF93EF93FB
:10059000FF9382E080930B06E091143FF091153FAA
:1005A000309709F00995FF91EF91BF91AF919F911D
:1005B0008F917F916F915F914F913F912F910F900C
:0805C0000FBE0F901F9018956B
:1005C8001F920F920FB60F9211242F933F934F93C0
:1005D8005F936F937F938F939F93AF93BF93EF93A3
:1005E800FF93E091263FF091273F309709F0099556
:1005F80081E080938A00FF91EF91BF91AF919F9125
:100608008F917F916F915F914F913F912F910F90B3
:080618000FBE0F901F90189512
:100620001092453F82E08093423F97E19093413F93
:100630009FE79093433F99E19093403F9FEB9093C6
:100640003D3F93E090933C3F80933B3F85E0809318
:100650003A3F1092393F1092303F1092313F109242
:10066000443F10923E3F10923F3F8091303F909127
:04067000313F40C115
:10067400E0E0F6E080818E7F808382858C7F8287B4
:1006840083E083871092163F1092173F1092143F15
:100694001092153F118212821382148215821682DF
:1006A400108611861486148A158A128A138A168A69
:0806B400128681E080830895A5
:1006BC00C5D08FE594E01DD180E480930204EBD08B
:1006CC00A9DFC7D01092333F8091333F8823E1F3E9
:1006DC001092333FA895D8D0F0DD8091323F8F5FD8
:1006EC008093323F8091323F823370F31092323FCD
:0206FC00EBCF42
:1006FE00E0E0FAE010A611A612A613A614A615A6FF
:10070E0010A211A283E181831282138214821582B8
:10071E001682178216861186128613868FEF9FEF2A
:0C072E0086A397A3178685E080830895BA
:10073A00E0E4FAE080818E7F808311821086148241
:10074A0080E593EC8487958712861386168288E95A
:10075A0094E08093283F9093293F81E0858383E04A
:04076A0080830895EB
:10076E0040E068ED80E690E0C8D043E068ED81E6B9
:10077E0090E0C3D040E068ED82E690E0BED040E06D
:10078E0068ED80E790E0B9D040E068ED88E790E052
:02079E00B4C0E5
:1007A000E0E1F8E0108212828DE384878EEF868785
:1007B00081E681871286158613861092183F109263
:0407C000193F089540
:1007C40080930606809108068160809308068091D4
:1007D400080680FDFCCF80911006909111060895C3
:1007E40045E068ED80E890E08DD0E0E8F0E082E05C
:0E07F4008183118612861386108680E0089598
:1008020040E068ED80E191E07ED0E0E1F1E012822B
:080812001382789480E0089540
:10081A0040E068ED80E091E072D040E868ED81E068
:08082A0091E06DD080E008951B
:10083200E0E1F8E010821282148616861186128692
:06084200158613860895DF
:1008480092DFFDDD13DF57DF74DFC8DFA5DF62D07D
:0608580038D0DFDFD2CF33
:10085E008BE190E080932E3F90932F3F80932C3F1F
:06086E0090932D3F089558
:10087400D003190488048B046B04700475044304C6
:02088400000072
:0E088600009721F08093183F9093193F08953A
:0E0894008EE196DF80932A3F90932B3F0895CC
:0E08A200E0918288F091838883EF90E00994C2
:0E08B000EC0140D03ED0CE013ED0CE013DD076
:0C08BE008091333F8F5F8093333F08959B
:0C08CA00E0EAF0E01082118280E0089566
:0A08D6008091353F1092353F0895E0
:0A08E00080911B0886958170089531
:0A08EA0080911B088295817008952B
:0A08F4008093380A9093390A0895A2
:0A08FE008093283F9093293F08954E
:08090800FC0164BF4083089567
:0609100080931D0808950C
:0609160080911D08089508
:06091C0010920110089585
:020922006ECB9A
:02092400089534
:02092600089532
:02092800089530
:02092A0008952E
:02092C0008952C
:02092E0008952A
:02093000089528
:02093200089526
:02093400089524
:02093600089522
:02093800A6DB3C
:02000004008278
:090000001345020000C4030000D6
:00000001FF
