:100000001CC02CC647C488C229C628C627C626C617
:1000100025C624C623C622C621C6B4C31FC61EC613
:100020001DC6E0C30BC4E1C019C618C617C616C664
:1000300015C614C63F003FBD800011241FBECFEF80
:10004000CDBFDFE3DEBFE4E3F0E040E017C0B591F1
:10005000A59135912591059107FD0CC0959185914C
:10006000EF01F92FE82F05900D92A217B307D9F7EA
:10007000FE0104C01D92A217B307E1F7E933F407AC
:0A00800031F74ED39FC5F894FFCF6F
:10008A0083E1ECE4FFE3DF01982F1D929A95E9F7EB
:10009A00F894E3E1FFE3AFE5BFE3982F01900D92F7
:1000AA009A95E1F7E0E0FFE3A9E3BFE301900D923F
:1000BA008A95E1F778948091393F882339F08091C5
:1000CA005F3F8093723F81E080934C3F80913B3F3A
:1000DA00811166C080913C3F811162C08091413F8D
:1000EA00811105C08091423F882309F467C086E0E8
:1000FA00E7E6FFE3AAE7BFE301900D928A95E1F7ED
:10010A008AE79FE3CFD246E050E061E070E084E501
:10011A009FE335D580913A3F882321F08091603F53
:10012A008093733F80913D3F811131C080913E3F62
:10013A0081112DC080913F3F811120C08091403FA5
:10014A0081111CC0F89483E1E2E7FFE3A6E2BFE372
:10015A0001900D928A95E1F7ECE4FFE3CF018C540C
:10016A009F432191222321F0DC01A050B14C1C9223
:10017A00AFE3EF35FA0791F7789408958091653FD8
:10018A009091663F8093783F9093793FDBCF80913F
:10019A00633F9091643F8093763F9093773FCACFB5
:1001AA008091613F9091623F8093743F9093753F35
:1001BA0081E080934E3F80934F3F90CF8091433FA1
:1001CA00811195CF80910B3F811191CF80910C3F86
:1001DA0081118DCF80910D3F882309F49BCF87CF62
:1001EA001F920F920FB60F9211242F933F934F93A2
:1001FA005F936F937F938F939F93AF93BF93EF9385
:10020A00FF9380911B0883FD31C080911B0882FDFA
:10021A002DC080911B0887FD04C080911B0886FFB2
:10022A0014C080911B0886FF04C080911B0880FFC0
:10023A0054C080911B0886FF04C080911B0880FD72
:10024A003CC080911B0887FD1CC0FF91EF91BF91B4
:10025A00AF919F918F917F916F915F914F913F9154
:10026A002F910F900FBE0F901F90189580911B0829
:10027A0083FD4DC080911B0882FD15C01092AC3FD2
:10028A00C8CF80911B0881FF4CC08091AB3F811180
:10029A0032C080911B0884FF2EC083E080931A0825
:1002AA001092AB3FD2CF82E08093AC3FE0918F3F78
:1002BA00F091903F85E00995ACCF81E08093AB3F08
:1002CA001092AC3FE0918F3FF091903F09958823BF
:1002DA0089F183E080931A08B8CF1092AB3FE0917E
:1002EA008F3FF091903F84E0099580911B08806CC4
:1002FA0080931B08AACFE0918F3FF091903F83E053
:10030A0009958111CACF86E080931A08C9CF81E086
:10031A008093AC3FE0918F3FF091903F85E0099543
:10032A0078CFE0918F3FF091903F82E00995882342
:0C033A0051F3B3CF86E080931A0887CF00
:10034600CF93DF93C82F8330E1F1D8F4813071F178
:10035600823099F48091AF3F882309F457C01092F8
:10036600AF3FE0917C8BF0917D8B09958093AE3FFA
:100376008091AE3F833108F05CC081E0DF91CF9180
:1003860008958430C1F18530C1F7E0917E8BF091FC
:100396007F8B09958093AD3F8091AD3F813069F3A6
:1003A6008091AD3F81E0DF91CF910895E091808B00
:1003B600F091818B0995811125C0C093AF3F81E0F3
:1003C600DDCFE091AE3FF0E0EA5DF04C8081E09158
:1003D6007A8BF0917B8B09958091AE3F8F5F8093EE
:1003E600AE3F8091AE3F833140F21092AE3F81E046
:1003F600DF91CF9108951092AE3F1AD481E0DF913C
:10040600CF9108951092AF3F81E0B8CFC091AE3F33
:10041600D0E0E0917C8BF0917D8B0995CD5ED04C40
:100426008883E091AE3FF0E0E050F14C81E08083BC
:0A043600D3CF1092AE3F80E0A1CFBB
:100440008091BC3F882309F442C0813069F04ED2CC
:100450008091B03F90E08093A73F9093A83F809118
:10046000A73F9091A83FD0C38091BB3F8F5F8093FF
:10047000BB3F9091BB3F8091B73F981710F010920F
:10048000BB3F9091BB3F8091B83F981798F5109271
:10049000B03F8091B63F8823D9F28091B53F8F5FFE
:1004A0008093B53F9091B53F8091B13F981720F070
:1004B0001092B53F1092B63F9091B53F8091B23FF8
:1004C000981738F18091B43F8093B03FC1CF8091AD
:1004D000BB3F8F5F8093BB3F8091BB3F863598F4D5
:1004E0008091BB3F853559F08091B03F8D5F8093FF
:1004F000B03FAECF8091BA3F8093B03FCACF8FEF6D
:100500008093B03FA5CF81E08093BC3F1092BB3F6A
:080510009FCF1092B03F9CCF79
:100518001F920F920FB60F9211242F933F934F9370
:100528005F936F937F938F939F93AF93BF93EF9353
:10053800FF9318993BC01A9933C0199924C01F9981
:1005480029C01E991AC01B9B05C0E091913FF091EC
:10055800923F09958FEF83B9FF91EF91BF91AF91CA
:100568009F918F917F916F915F914F913F912F91C3
:100578000F900FBE0F901F901895E091933FF09148
:10058800943F0995E0CFE091973FF091983F099506
:100598001F9BD7CFE091953FF091963F0995D1CF1A
:1005A800E091993FF0919A3F0995C7CFE0919B3F21
:0805B800F0919C3F0995BFCFB3
:1005C0001092723F80E094E143D38093733F109286
:1005D000743F1092753F81E094E13AD38093763F67
:1005E00082E094E135D38093773F8091763F90917C
:1005F000773F8C32914030F48CE291E08093763FEB
:100600009093773F85E094E123D390E08093783F07
:100610009093793F8AE79FE32BD21DD38093803F4D
:1006200006D31092813F1092823F809121118093D6
:0C063000833F809120118093843F089547
:10063C00E0E0F4E0148288E88083108A118A128A40
:10064C00138A148A158A168A178AE0E0F2E010825F
:10065C00118281E08283138281E396E080939B3F39
:10066C0090939C3F82E396E08093993F90939A3FBE
:10067C0083E396E08093973F9093983F84E396E0D2
:10068C008093953F9093963F80E396E08093933FC1
:10069C009093943F8FE296E08093913F9093923F9A
:0206AC000895AF
:1006AE00DC018C91E5E8FFE3808311968C91119724
:1006BE00818312968C911297828313968C91139745
:1006CE00838314968C911497848315968C918583CD
:1006DE0080818093BA3F81818093B93F82818093DC
:1006EE00B83F9091B93F8091B83F890F8093B73F43
:1006FE0083818093B43F84818093B33F85818093BF
:10070E00B23F9091B33F8091B23F890F8093B13F3A
:02071E0008953C
:1007200014D289EE95E075D280E480930204DED085
:1007300017D246DF29D183E1E2E7FFE3A6E2BFE378
:1007400001900D928A95E1F736D21092AA3F8091DE
:10075000AA3F8823E1F31092AA3FA89525D25ED242
:100760008093813F9093823F6BDE8FDC8091A93F25
:100770008F5F8093A93F8091A93F823340F310920D
:04078000A93FE5CFD9
:100784001F920F920FB60F9211242F933F934F9302
:100794005F936F937F938F939F93AF93BF93EF93E5
:1007A400FF938091460A80FF0AC0E0919F3FF09139
:1007B400A03F309709F0099581E08093460AFF91A4
:1007C400EF91BF91AF919F918F917F916F915F91C5
:1007D4004F913F912F910F900FBE0F901F9018953E
:1007E4001F920F920FB60F9211242F933F934F93A2
:1007F4005F936F937F938F939F93AF93BF93EF9385
:10080400FF9381E080930B06E0918D3FF0918E3F42
:10081400309709F00995FF91EF91BF91AF919F91A6
:100824008F917F916F915F914F913F912F910F9095
:080834000FBE0F901F901895F4
:10083C001F920F920FB60F9211242F933F934F9349
:10084C005F936F937F938F939F93AF93BF93EF932C
:10085C00FF9382E080930B06E0918B3FF0918C3FED
:10086C00309709F00995FF91EF91BF91AF919F914E
:10087C008F917F916F915F914F913F912F910F903D
:08088C000FBE0F901F9018959C
:100894001F920F920FB60F9211242F933F934F93F1
:1008A4005F936F937F938F939F93AF93BF93EF93D4
:1008B400FF93E0919D3FF0919E3F309709F0099599
:1008C40081E080938A00FF91EF91BF91AF919F9156
:1008D4008F917F916F915F914F913F912F910F90E5
:0808E4000FBE0F901F90189544
:1008EC001092BC3F82E08093B93F97E19093B83F60
:1008FC009FE79093BA3F99E19093B73F9FEB90930A
:10090C00B43F93E09093B33F8093B23F85E08093E4
:10091C00B13F1092B03F1092A73F1092A83F109297
:10092C00BB3F1092B53F1092B63F8091A73F90917C
:04093C00A83F64C1AB
:10094000E0E0F6E080818E7F808382858C7F8287E5
:1009500083E0838710928D3F10928E3F10928B3FE1
:1009600010928C3F11821282138214821582168299
:10097000108611861486148A158A128A138A168A9A
:08098000128681E080830895D6
:1009880083E1E2E7FFE3A3E1BFE301900D928A95DB
:10099800E1F78EE08093213F8FE08093223F80E152
:1009A8008093233F81E18093243F82E18093253F18
:1009B80080E090E0FC01E050F14C10820196833118
:0609C8009105C1F708953E
:1009CE00E0E0FAE010A611A612A613A614A615A62C
:1009DE0010A211A283E181831282138214821582E6
:1009EE001682178216861186128613868FEF9FEF58
:0C09FE0086A397A3178685E080830895E8
:100A0A00E0E4FAE080818E7F80831182108614826E
:100A1A0080E593EC8487958712861386168285E390
:100A2A0096E080939F3F9093A03F81E0858383E087
:040A3A008083089518
:100A3E0040E068ED80E690E0EFD043E068ED81E6BF
:100A4E0090E0EAD040E068ED82E690E0E5D040E04C
:100A5E0068ED80E790E0E0D040E068ED88E790E058
:020A6E00DBC0EB
:100A7000FC01A5E8BFE38C91808311968C911197BE
:100A8000818312968C911297828313968C9113977F
:100A9000838314968C911497848315968C91858307
:020AA0000895B7
:100AA200E0E1F8E0108212828DE384878EEF868780
:100AB20081E6818712861586138610928F3F1092E7
:040AC200903F0895C4
:100AC60080930606809108068160809308068091CF
:100AD600080680FDFCCF80911006909111060895BE
:100AE60045E068ED80E890E09BD0E0E8F0E082E049
:0E0AF6008183118612861386108680E0089593
:100B040040E068ED80E191E08CD0E0E1F1E0128218
:080B14001382789480E008953B
:100B1C0040E068ED80E091E080D040E868ED81E055
:080B2C0091E07BD080E0089508
:100B3400E0E1F8E01082128214861686118612868D
:060B4400158613860895DA
:100B4A0079DF77DDF8DE3EDF5BDFC8DFA5DF78D04F
:060B5A0041D0DFDFD2CF25
:100B60008BE190E08093A53F9093A63F8093A33FB5
:060B70009093A43F0895DC
:100B760051059A051F062206F505FA05FF05CD055E
:020B860000006D
:100B8800FC01480F591FE417F50711F06193FBCFDB
:020B98000895BE
:0E0B9A00009721F080938F3F9093903F089535
:0E0BA8008EE18DDF8093A13F9093A23F0895D0
:0E0BB600E091848BF091858B83EA91E00994A5
:0E0BC400EC0153D051D0CE0151D0CE0150D013
:0C0BD2008091AA3F8F5F8093AA3F089596
:0C0BDE00E0EAF0E01082118280E008954F
:0A0BEA008091AC3F1092AC3F0895DB
:0A0BF40080911B088695817008951A
:0A0BFE0080911B0882958170089514
:0A0C08008093380A9093390A08958A
:0A0C120080939F3F9093A03F089548
:0A0C1C008091A13F9091A23F08953E
:080C2600FC0164BF4083089546
:080C2E008FE38093400008955C
:080C360081E08093B63F0895B0
:060C3E0080931D080895DB
:060C440080911D080895D7
:060C4A0010920110089554
:060C5000FC018081089503
:060C5600809140000895AA
:020C5C00D1C9FC
:020C5E000895F7
:020C60000895F5
:020C62000895F3
:020C64000895F1
:020C66000895EF
:020C68000895ED
:020C6A000895EB
:020C6C000895E9
:020C6E000895E7
:020C70000895E5
:020C720009DA9D
:02000004008278
:090000001345020000C4030000D6
:00000001FF
