:100000001CC05AC70AC5F8C257C756C755C754C7F8
:1000100053C752C751C750C74FC74BC44DC74CC732
:100020004BC7A3C4CEC450C147C746C745C744C782
:1000300043C742C73F003FD5800011241FBECFEF0A
:10004000CDBFDFE3DEBFE4E3F0E040E017C0B591F1
:10005000A59135912591059107FD0CC0959185914C
:10006000EF01F92FE82F05900D92A217B307D9F7EA
:10007000FE0104C01D92A217B307E1F7E933F407AC
:0A00800031F7F7D4C0C6F894FFCFA3
:10008A0086E1EFE6FFE3DF01982F1D929A95E9F7E3
:10009A00F894E7E1FFE3A9E5BFE3982F01900D92F9
:1000AA009A95E1F7E0E0FFE3A3E4BFE301900D9244
:1000BA008A95E1F778948091433F882339F08091BB
:1000CA00593F8093853F81E080936F3F8091443F01
:1000DA00882339F080915A3F8093863F81E080934C
:1000EA00703F8091463F811150C08091473F8111F6
:1000FA004CC080914C3F811105C080914D3F8823AF
:10010A0009F451C086E0E2E6FFE3AEE8BFE30190FE
:10011A000D928A95E1F78EE89FE340D646E050E0DB
:10012A0061E070E088E79FE34BD68091453F8111FB
:10013A004CC08091483F81115AC08091493F81113A
:10014A0070C080914A3F8111A0C080914B3F8111BC
:10015A0082C0F89486E1E5E8FFE3ADE2BFE30190EF
:10016A000D928A95E1F7EFE6FFE3CF018F569F43A1
:10017A002191222321F0DC01A050B14C1C92AFE363
:10018A00E538FA0791F77894089580915C3F909149
:10019A005D3F8093883F9093893F81E08093723FCF
:1001AA008093733FA6CF80914E3F8111ABCF809150
:1001BA004F3F8111A7CF8091503F8111A3CF8091EA
:1001CA00513F882309F4B1CF9DCF60915B3F609383
:1001DA00873F80E094E177D5F0D28111BACF809140
:1001EA005B3F8093873F81E08093713FB2CF6091FC
:1001FA005E3F60938A3F80E094E165D5DED281114B
:10020A00A8CF8091493F811108C080915E3F9091AB
:10021A005F3F80938A3F90938B3F81E08093743F46
:10022A0098CF60915F3F60938B3F80E094E14BD51C
:10023A00C4D281118ECF8091483F811108C080912C
:10024A005E3F90915F3F80938A3F90938B3F81E01E
:10025A008093753F7ECF6091613F60938D3F80E0D0
:10026A0094E131D5AAD2811174CF80914A3F81118C
:10027A0008C08091603F9091613F80938C3F90933A
:10028A008D3F81E08093773F64CF6091603F6093B8
:10029A008C3F80E094E117D590D281115ACF80919A
:1002AA004B3F811108C08091603F9091613F8093DC
:0E02BA008C3F90938D3F81E08093763F4ACF3A
:1002C8001F920F920FB60F9211242F933F934F93C3
:1002D8005F936F937F938F939F93AF93BF93EF93A6
:1002E800FF9380911B0883FD31C080911B0882FD1C
:1002F8002DC080911B0887FD04C080911B0886FFD4
:1003080014C080911B0886FF04C080911B0880FFE1
:1003180054C080911B0886FF04C080911B0880FD93
:100328003CC080911B0887FD1CC0FF91EF91BF91D5
:10033800AF919F918F917F916F915F914F913F9175
:100348002F910F900FBE0F901F90189580911B084A
:1003580083FD4DC080911B0882FD15C01092C83FD7
:10036800C8CF80911B0881FF4CC08091C73F811185
:1003780032C080911B0884FF2EC083E080931A0846
:100388001092C73FD2CF82E08093C83FE091A53F4B
:10039800F091A63F85E00995ACCF81E08093C73FF7
:1003A8001092C83FE091A53FF091A63F0995882398
:1003B80089F183E080931A08B8CF1092C73FE09183
:1003C800A53FF091A63F84E0099580911B08806CB9
:1003D80080931B08AACFE091A53FF091A63F83E048
:1003E80009958111CACF86E080931A08C9CF81E0A8
:1003F8008093C83FE091A53FF091A63F85E009951D
:1004080078CFE091A53FF091A63F82E00995882337
:0C04180051F3B3CF86E080931A0887CF21
:10042400CF93DF93C82F8330B1F1D8F4813041F1F9
:10043400823099F48091CC3F882309F453C0109200
:10044400CC3FE0919A8DF0919B8D09958093CB3FA1
:100454008091CB3F863108F058C081E0DF91CF9185
:100464000895843091F18530C1F7E0919C8DF0912D
:100474009D8D09958093163F81E0DF91CF9108957A
:10048400E0919E8DF0919F8D0995811127C0C093B5
:10049400CC3F81E0E3CFE091CB3FF0E0E35DF04C73
:1004A4008081E091988DF091998D09958091CB3F51
:1004B4008F5F8093CB3F8091CB3F863170F2109257
:1004C400CB3F81E0DF91CF9108951092CB3FDCD4F4
:1004D4001092163F81E0DF91CF9108951092CC3FA6
:1004E40081E0BCCFC091CB3FD0E0E0919A8DF091F8
:1004F4009B8D0995C95ED04C8883E091CB3FF0E099
:10050400E050F14C81E08083D1CF1092CB3F80E06A
:02051400A5CF71
:100516008091D43F882309F447C0813069F0F4D232
:100526008091D03F90E08093BF3F9093C03F8091F1
:10053600BF3F9091C03F90C48091D23F8F5F809320
:10054600D23F90919C3F8091D23F891708F03FC0DF
:1005560080919B3F8093D03F90919D3F8091D23F69
:10056600891730F01092D23F80919B3F8093D03F05
:100576008091D33F8823A1F28091D13F8F5F8093F2
:10058600D13F90919F3F8091D13F891768F110929A
:10059600D03F9091A03F8091D13F891708F21092E9
:1005A600D13F1092D33FBCCF8091D23F8F5F8093D3
:1005B600D23F8091D23F863588F48091D23F8535EF
:1005C60049F08091D03F8D5F8093D03FA9CF1092A4
:1005D600D03FC2CF8FEF8093D03FA2CF81E08093F0
:1005E600D43F1092D23F9CCF80919E3F8093D03FC4
:0205F600D0CF64
:1005F8001F920F920FB60F9211242F933F934F9390
:100608005F936F937F938F939F93AF93BF93EF9372
:10061800FF9318993BC01A9933C0199924C01F99A0
:1006280029C01E991AC01B9B05C0E091A73FF091F5
:10063800A83F09958FEF83B9FF91EF91BF91AF91D3
:100648009F918F917F916F915F914F913F912F91E2
:100658000F900FBE0F901F901895E091A93FF09151
:10066800AA3F0995E0CFE091AD3FF091AE3F0995E3
:100678001F9BD7CFE091AB3FF091AC3F0995D1CF0D
:10068800E091AF3FF091B03F0995C7CFE091B13FFE
:08069800F091B23F0995BFCFBC
:1006A0008091883F9091893F20918A3F30918B3F84
:1006B00082179307E8F080918C3F90918D3F0196CF
:1006C00080938C3F90938D3F1092C23F81E0809346
:1006D000C43F8DE18093C33F8091163F882301F191
:1006E0008091C13F882301F181508093C13F0895DB
:1006F00001968093883F9093893F8091C43F8823DF
:1007000059F38091C33F811110C080E480930604A7
:1007100080930104809306048091163F8111E0CFFD
:100720008EE18093C13F089595C381508093C33F6C
:060730008111D2CFEACFD7
:100736001092853F8EE18093863F80E094E1B0D3AE
:100746008093873F1092883F1092893F81E094E121
:10075600A7D380938A3F82E094E1A2D380938B3F14
:1007660080918A3F90918B3F8C32914030F48CE29D
:1007760091E080938A3F90938B3F85E094E190D3FC
:1007860080938C3F86E094E18BD380938D3F8EE8F7
:100796009FE30FD388D38093943F71D31092953FF4
:1007A6001092963F809121118093973F809120115E
:0E07B6008093983F1092993F10929A3F0895B9
:1007C400CF93C091C93FC23001F1C33091F0C13021
:1007D40039F081E08093C93FC1E08C2FCF91089517
:1007E40032D381110AC082E08093C93F8C2FCF910C
:1007F400089529D3882391F0C1E08091C93F8111E4
:10080400ECCFC0E08C2FCF9108958091BD3F9091A3
:10081400BE3F47D36091CA3F861304C01092C93FBC
:10082400C0E0F0CF8091BD3F9091BE3FDCD283E029
:0C0834008093C93FC1E08C2FCF91089544
:10084000E0E0F4E0148288E88083108A118A128A3A
:10085000138A148A158A168A178AE0E0F2E0108259
:10086000118281E0828313828FE597E08093B13F0C
:100870009093B23F80E697E08093AF3F9093B03F74
:1008800081E697E08093AD3F9093AE3F82E697E09C
:100890008093AB3F9093AC3F8EE597E08093A93F68
:1008A0009093AA3F8DE597E08093A73F9093A83F50
:0208B0000895A9
:1008B2001F920F920FB60F9211242F933F934F93D3
:1008C2005F936F937F938F939F93AF93BF93EF93B6
:1008D200FF938091460A80FF0AC0E091B53FF091F4
:1008E200B63F309709F0099581E08093460AFF915F
:1008F200EF91BF91AF919F918F917F916F915F9196
:100902004F913F912F910F900FBE0F901F9018950E
:100912008091C43F882399F08091C23F882319F0C7
:100922008130A1F008956091603F85E094E1CFD1DC
:1009320048DF8111F7CF81E08093C23F089598D2BA
:100942008093953F9093963F9FDB21C16091613FD9
:1009520086E094E1BCD135DF8111E4CF82E080935F
:08096200C23F1092C33F08954B
:10096A001F920F920FB60F9211242F933F934F931A
:10097A005F936F937F938F939F93AF93BF93EF93FD
:10098A00FF9381E080930B06E091A33FF091A43F8F
:10099A00309709F00995FF91EF91BF91AF919F911F
:1009AA008F917F916F915F914F913F912F910F900E
:0809BA000FBE0F901F9018956D
:1009C2001F920F920FB60F9211242F933F934F93C2
:1009D2005F936F937F938F939F93AF93BF93EF93A5
:1009E200FF9382E080930B06E091A13FF091A23F3A
:1009F200309709F00995FF91EF91BF91AF919F91C7
:100A02008F917F916F915F914F913F912F910F90B5
:080A12000FBE0F901F90189514
:100A1A001F920F920FB60F9211242F933F934F9369
:100A2A005F936F937F938F939F93AF93BF93EF934C
:100A3A00FF93E091B33FF091B43F309709F00995E5
:100A4A0081E080938A00FF91EF91BF91AF919F91CE
:100A5A008F917F916F915F914F913F912F910F905D
:080A6A000FBE0F901F901895BC
:100A72007AD18AE097E0F7D180E480930204109261
:100A8200C43F8EE18093C13F41D078D111D23CD195
:100A92002DD11092C63F8091C63F8823E1F3109278
:100AA200C63FA895A8D136DD33DF8091C53F8F5F61
:100AB2008093C53F8091C53F823368F31092C53F52
:040AC200EEDDE9CFAD
:100AC600E0E0F6E080818E7F808382858C7F82875E
:100AD60083E083871092A33F1092A43F1092A13F18
:100AE6001092A23F118212821382148215821682FC
:100AF600108611861486148A158A128A138A168A13
:080B0600128681E0808308954E
:100B0E001092D43FEBE9FFE382E0818397E1928379
:100B1E009FE790839FEB9093CF3F93E09093CE3FD0
:100B2E008093CD3F1092D03F1092BF3F1092C03FA6
:100B3E001092D23F1092D13F1092D33F8091BF3F7F
:060B4E009091C03F85C13B
:100B540086E1E5E8FFE3A7E1BFE301900D928A9502
:100B6400E1F78EE090E0FC01E95EF04C80830196B1
:100B740086319105C1F780E090E0FC01E050F14C32
:0C0B84001082019686319105C1F708959A
:100B90008091853F8131C9F0813251F0813009F077
:100BA00008951092883F1092893F1092853F0895D2
:100BB0001092853F81E08093C43F8091863F80936F
:0C0BC000C33F82E08093C23F089544C10F
:100BCC00E0E0FAE010A611A612A613A614A615A62C
:100BDC0010A211A283E181831282138214821582E6
:100BEC001682178216861186128613868FEF9FEF58
:0C0BFC0086A397A3178685E080830895E8
:100C0800E0E4FAE080818E7F80831182108614826E
:100C180080E593EC8487958712861386168283E68F
:100C280097E08093B53F9093B63F81E0858383E05A
:040C38008083089518
:100C3C0040E068ED80E690E01BD143E068ED81E692
:100C4C0090E016D140E068ED82E690E011D140E0F2
:100C5C0068ED80E790E00CD140E068ED88E790E02B
:020C6C0007C1BE
:100C6E00E0E1F8E0108212828DE384878EEF8687B2
:100C7E0081E681871286158613861092A53F109203
:040C8E00A63F0895E0
:100C92008093060680910806816080930806809101
:100CA200080680FDFCCF80911006909111060895F0
:100CB20045E068ED80E890E0E0D0E0E8F0E082E036
:0E0CC2008183118612861386108680E00895C5
:100CD0009C019091C93F911109C02093BD3F309371
:0E0CE000BE3F6093CA3F81E08093C93F0895F4
:100CEE00CF93DF93C4E9DDE8EE85FF8582E192E0E4
:0C0CFE000995E881F981DF91CF910994FC
:100D0A0015DD23DF86E1E5E8FFE3ADE2BFE301900D
:080D1A000D928A95E1F708959E
:100D220040E068ED80E191E0A8D0E0E1F1E01282DC
:080D32001382789480E008951B
:100D3A0040E068ED80E091E09CD040E868ED81E019
:080D4A0091E097D080E00895CC
:100D5200E0E1F8E01082128214861686118612866D
:060D6200158613860895BA
:100D680069DF6ADDACDE2EDF4BDF9FDF7CDF94D0EE
:060D780053D0DFDFD2CFF3
:100D7E008BE190E08093BB3F9093BC3F8093B93F53
:060D8E009093BA3F0895A6
:100D94003706A9064A074D0716071B072007EE0664
:020DA40000004D
:100DA600FC0196E0ABE9BFE301900D929A95E1F75D
:020DB60008959E
:100DB800DC0196E0EBE9FFE301900D929A95E1F7EB
:020DC80008958C
:100DCA00FC01480F591FE417F50711F06193FBCF97
:020DDA0008957A
:0E0DDC00009721F08093A53F9093A63F0895C5
:0E0DEA00FC01608343E06DE980E090E142C0CF
:0E0DF8008EE14BDF8093B73F9093B83F089594
:0E0E0600EC0160D05ED0CE015ED0CE015DD09A
:0C0E14008091C63F8F5F8093C63F089519
:0C0E2000E0EAF0E01082118280E008950A
:0A0E2C008091C83F1092C83F08955E
:0A0E360080911B08869581700895D5
:0A0E400080911B08829581700895CF
:0A0E4A0080910210869581700895D2
:0A0E540041E068ED81E490E00FC07A
:0A0E5E008093380A9093390A089532
:0A0E68008093B53F9093B63F0895C4
:0A0E72008091B73F9091B83F0895BA
:080E7C00FC0164BF40830895EE
:080E84008FE380934000089504
:080E8C0081E08093D33F08953B
:060E940080931D08089583
:060E9A0080911D0808957F
:060EA000109201100895FC
:060EA600FC0180810895AB
:060EAC0080914000089552
:060EB2001092C93F0895F3
:020EB800A3C8CD
:020EBA00089599
:020EBC00089597
:020EBE00089595
:020EC000089593
:020EC200089591
:020EC40008958F
:020EC60008958D
:020EC80008958B
:020ECA00089589
:020ECC00089587
:020ECE00DBD86F
:02000004008278
:090000001345020000C4030000D6
:00000001FF
