:100000001CC0A3C34EC2EFC0A0C39FC39EC39DC369
:100010009CC39BC39AC399C398C3BBC196C395C3E2
:1000200094C3E7C112C231C090C38FC38EC38DC3C6
:100030008CC38BC33F003F26800011241FBECFEF2F
:10004000CDBFDFE3DEBFE4E3F0E040E017C0B591F1
:10005000A59135912591059107FD0CC0959185914C
:10006000EF01F92FE82F05900D92A217B307D9F7EA
:10007000FE0104C01D92A217B307E1F7E933F407AC
:0A00800031F7C4D23CC3F894FFCF5F
:10008A001F920F920FB60F9211242F933F934F9303
:10009A005F936F937F938F939F93AF93BF93EF93E6
:1000AA00FF9380911B0883FD31C080911B0882FD5C
:1000BA002DC080911B0887FD04C080911B0886FF14
:1000CA0014C080911B0886FF04C080911B0880FF22
:1000DA0054C080911B0886FF04C080911B0880FDD4
:1000EA003CC080911B0887FD1CC0FF91EF91BF9116
:1000FA00AF919F918F917F916F915F914F913F91B6
:10010A002F910F900FBE0F901F90189580911B088A
:10011A0083FD4DC080911B0882FD15C010921E3FC1
:10012A00C8CF80911B0881FF4CC080911D3F81116F
:10013A0032C080911B0884FF2EC083E080931A0886
:10014A0010921D3FD2CF82E080931E3FE091043F80
:10015A00F091053F85E00995ACCF81E080931D3F82
:10016A0010921E3FE091043FF091053F09958823C4
:10017A0089F183E080931A08B8CF10921D3FE0916D
:10018A00043FF091053F84E0099580911B08806C3B
:10019A0080931B08AACFE091043FF091053F83E0CA
:1001AA0009958111CACF86E080931A08C9CF81E0E8
:1001BA0080931E3FE091043FF091053F85E0099549
:1001CA0078CFE091043FF091053F82E009958823BA
:0C01DA0051F3B3CF86E080931A0887CF62
:1001E6001F920F920FB60F9211242F933F934F93A6
:1001F6005F936F937F938F939F93AF93BF93EF9389
:10020600FF9318993BC01A9933C0199924C01F99B6
:1002160029C01E991AC01B9B05C0E091063FF091AC
:10022600073F09958FEF83B9FF91EF91BF91AF918A
:100236009F918F917F916F915F914F913F912F91F8
:100246000F900FBE0F901F901895E091083FF09108
:10025600093F0995E0CFE0910C3FF0910D3F0995DC
:100266001F9BD7CFE0910A3FF0910B3F0995D1CF65
:10027600E0910E3FF0910F3F0995C7CFE091103FF7
:08028600F091113F0995BFCF73
:10028E008091253F882301F1813021F0A4D1809106
:10029E001F3F52C28091243F8F5F8093243F9091E5
:1002AE00243F8091203F981710F01092243F909198
:1002BE00243F8091213F9817D8F08091233F80935F
:1002CE001F3F80911F3F38C28091243F8F5F8093E4
:1002DE00243F8091243F8C34A0F48091243F8B34B2
:1002EE0061F080911F3F80931F3F80911F3F24C27A
:1002FE0010921F3F80911F3F1FC28FEF80931F3FB1
:10030E00C6CF81E08093253F1092243F80911F3FFE
:02031E0013C208
:10032000E0E0F4E0148288E88083108A118A128A5F
:10033000138A148A158A168A178AE0E0F2E010827E
:10034000118281E08283138288EA93E08093103FD8
:100350009093113F89EA93E080930E3F90930F3F73
:100360008AEA93E080930C3F90930D3F8BEA93E0F1
:1003700080930A3F90930B3F87EA93E08093083F76
:100380009093093F86EA93E08093063F9093073F5E
:020390000895CE
:100392001F920F920FB60F9211242F933F934F93F8
:1003A2005F936F937F938F939F93AF93BF93EF93DB
:1003B200FF938091460A80FF0AC0E091143FF091BA
:1003C200153F309709F0099581E08093460AFF9125
:1003D200EF91BF91AF919F918F917F916F915F91BB
:1003E2004F913F912F910F900FBE0F901F90189534
:1003F2001F920F920FB60F9211242F933F934F9398
:100402005F936F937F938F939F93AF93BF93EF937A
:10041200FF9381E080930B06E091023FF091033F4E
:10042200309709F00995FF91EF91BF91AF919F919C
:100432008F917F916F915F914F913F912F910F908B
:080442000FBE0F901F901895EA
:10044A001F920F920FB60F9211242F933F934F933F
:10045A005F936F937F938F939F93AF93BF93EF9322
:10046A00FF9382E080930B06E091003FF091013FF9
:10047A00309709F00995FF91EF91BF91AF919F9144
:10048A008F917F916F915F914F913F912F910F9033
:08049A000FBE0F901F90189592
:1004A2001F920F920FB60F9211242F933F934F93E7
:1004B2005F936F937F938F939F93AF93BF93EF93CA
:1004C200FF93E091123FF091133F309709F00995A5
:1004D20081E080938A00FF91EF91BF91AF919F914C
:1004E2008F917F916F915F914F913F912F910F90DB
:0804F2000FBE0F901F9018953A
:1004FA00E0E0F6E080818E7F808382858C7F828730
:10050A0083E083871092023F1092033F1092003FCC
:10051A001092013F1182128213821482158216826E
:10052A00108611861486148A158A128A138A168AE4
:08053A00128681E08083089520
:10054200E0E0FAE010A611A612A613A614A615A6BC
:1005520010A211A283E18183128213821482158276
:100562001682178216861186128613868FEF9FEFE8
:0C05720086A397A3178685E08083089578
:10057E00E0E4FAE080818E7F8083118210861482FF
:10058E0080E593EC848795871286138616828CEA13
:10059E0093E08093143F9093153F81E0858383E031
:0405AE0080830895A9
:1005B20040E068ED80E690E0BED043E068ED81E681
:1005C20090E0B9D040E068ED82E690E0B4D040E03F
:1005D20068ED80E790E0AFD040E068ED88E790E01A
:0205E200AAC0AD
:1005E4001092253F82E08093223F87E18093213F50
:1005F4008FE78093233F89E18093203F10921F3F30
:080604001092243F80E09DC02C
:10060C005BD086E893E08DD0A2D0E6DF60D010926C
:10061C001C3F80911C3F8823E1F310921C3FA8954E
:06062C0061D02FDEF6CFC5
:10063200E0E1F8E0108212828DE384878EEF8687F4
:1006420081E681871286158613861092043F1092E6
:04065200053F0895C3
:100656008093060680910806816080930806809143
:10066600080680FDFCCF8091100690911106089532
:1006760045E068ED80E890E05CD0E0E8F0E082E0FC
:0E0686008183118612861386108680E0089507
:1006940040E068ED80E191E04DD0E0E1F1E01282CC
:0806A4001382789480E00895B0
:1006AC0040E068ED80E091E041D040E868ED81E009
:0806BC0091E03CD080E00895BC
:1006C40076DF2CDE18DF3BDF58DFD3DFB0DF36D038
:0606D40021D0EADFDDCFBA
:1006DA008BE190E080931A3F90931B3F8093183FE1
:0606EA009093193F0895F2
:0E06F0008EE1B1DF8093163F9093173F08957F
:0E06FE00EC012ED02CD0CE012CD0CE012BD072
:0C070C0080911C3F8F5F80931C3F08957C
:0C071800E0EAF0E01082118280E0089519
:0A0724008093380A9093390A089573
:0A072E008093143F9093153F089547
:08073800FC0164BF4083089539
:0607400010920110089563
:0407460090E0EDCF83
:02074A005ACC87
:02074C0008950E
:02074E0008950C
:0207500008950A
:02075200089508
:02075400089506
:02075600089504
:02075800089502
:02075A00089500
:02075C000895FE
:02075E000895FC
:020760000895FA
:0207620091DC28
:02000004008278
:090000001345020000C4030000D6
:00000001FF
