:100000001CC051C654C474C24EC64DC64CC64BC665
:100010004AC649C648C647C646C6C1C344C643C603
:1000200042C6EDC318C431C03EC63DC63CC63BC641
:100030003AC639C63F003F84800011241FBECFEF6F
:10004000CDBFDFE3DEBFE4E3F0E040E017C0B591F1
:10005000A59135912591059107FD0CC0959185914C
:10006000EF01F92FE82F05900D92A217B307D9F7EA
:10007000FE0104C01D92A217B307E1F7E933F407AC
:0A00800031F741D4C4C5F894FFCF56
:10008A001F920F920FB60F9211242F933F934F9303
:10009A005F936F937F938F939F93AF93BF93EF93E6
:1000AA00FF9380911B0883FD31C080911B0882FD5C
:1000BA002DC080911B0887FD04C080911B0886FF14
:1000CA0014C080911B0886FF04C080911B0880FF22
:1000DA0054C080911B0886FF04C080911B0880FDD4
:1000EA003CC080911B0887FD1CC0FF91EF91BF9116
:1000FA00AF919F918F917F916F915F914F913F91B6
:10010A002F910F900FBE0F901F90189580911B088A
:10011A0083FD4DC080911B0882FD15C01092733F6C
:10012A00C8CF80911B0881FF4CC08091723F81111A
:10013A0032C080911B0884FF2EC083E080931A0886
:10014A001092723FD2CF82E08093733FE091513F89
:10015A00F091523F85E00995ACCF81E08093723FE0
:10016A001092733FE091513FF091523F09958823D5
:10017A0089F183E080931A08B8CF1092723FE09118
:10018A00513FF091523F84E0099580911B08806CA1
:10019A0080931B08AACFE091513FF091523F83E030
:1001AA0009958111CACF86E080931A08C9CF81E0E8
:1001BA008093733FE091513FF091523F85E009955A
:1001CA0078CFE091513FF091523F82E00995882320
:0C01DA0051F3B3CF86E080931A0887CF62
:1001E60080914B3F90914C3F8093283F9093293FBD
:1001F6008091453F9091463F8093353F9093363F9F
:100206008091003F882351F08091133F80936F3F88
:100216008091133F8093263F1092003F8091023FCA
:1002260081114AC08091033F811146C08091083FE9
:10023600811105C08091093F882309F45BC086E0DF
:10024600EBE1FFE3A9E3BFE301900D928A95E1F7A5
:1002560089E39FE368D286E0EBE1FFE3AEE2BFE32A
:1002660001900D928A95E1F786E0E8E0FFE3DF0171
:100276001D928A95E9F78091013F882321F08091AC
:10028600133F80936E3F8091043F81112AC0809175
:10029600053F811126C08091063F811104C08091DF
:1002A600073F882341F08091193F90911A3F809330
:1002B600473F9093483F08958091153F9091163F90
:1002C60080934B3F90934C3F8091153F9091163F02
:1002D6008093283F9093293F1092023F1092033F4C
:1002E600A5CF8091173F9091183F8093493F9093F7
:1002F6004A3FD1CF80910A3F8111A1CF80910B3F18
:1003060081119DCF80910C3F811199CF80910D3F36
:08031600882309F4B0CF93CF56
:10031E00CF93DF93C82F8330E1F1D8F4813071F1A0
:10032E00823099F48091763F882309F457C0109259
:10033E00763FE091D88BF091D98B09958093753FDC
:10034E008091753F833108F05CC081E0DF91CF91E1
:10035E0008958430C1F18530C1F7E091DA8BF091C8
:10036E00DB8B09958093743F8091743F813069F3E4
:10037E008091743F81E0DF91CF910895E091DC8B05
:10038E00F091DD8B0995811125C0C093763F81E0F8
:10039E00DDCFE091753FF0E0EA5DF04C8081E091B9
:1003AE00D68BF091D78B09958091753F8F5F809397
:1003BE00753F8091753F833140F21092753F81E019
:1003CE00DF91CF9108951092753F53D481E0DF9164
:1003DE00CF9108951092763F81E0B8CFC091753FCE
:1003EE00D0E0E091D88BF091D98B0995CD5ED04CB1
:1003FE008883E091753FF0E0E050F14C81E080831E
:0A040E00D3CF1092753F80E0A1CF1C
:100418008091833F882309F442C0813069F099D2E2
:100428008091773F90E08093693F90936A3F8091F5
:10043800693F90916A3F09C48091823F8F5F8093A2
:10044800823F9091823F80917E3F981710F01092E2
:10045800823F9091823F80917F3F981798F5109244
:10046800773F80917D3F8823D9F280917C3F8F5FD1
:1004780080937C3F90917C3F8091783F981720F043
:1004880010927C3F10927D3F90917C3F8091793F04
:10049800981738F180917B3F8093773FC1CF809147
:1004A800823F8F5F8093823F8091823F863598F4A8
:1004B8008091823F853559F08091773F8D5F809399
:1004C800773FAECF8091813F8093773FCACF8FEF40
:1004D8008093773FA5CF81E08093833F1092823F3E
:0804E8009FCF1092773F9CCFDB
:1004F0001F920F920FB60F9211242F933F934F9399
:100500005F936F937F938F939F93AF93BF93EF937B
:10051000FF9318993BC01A9933C0199924C01F99A9
:1005200029C01E991AC01B9B05C0E091533FF09152
:10053000543F09958FEF83B9FF91EF91BF91AF9130
:100540009F918F917F916F915F914F913F912F91EB
:100550000F900FBE0F901F901895E091553FF091AE
:10056000563F0995E0CFE091593FF0915A3F0995E8
:100570001F9BD7CFE091573FF091583F0995D1CFBE
:10058000E0915B3FF0915C3F0995C7CFE0915D3F03
:08059000F0915E3F0995BFCF19
:1005980010926F3F80E094E17CD380936E3F10927D
:1005A8004B3F10924C3F82E094E173D390E08093EC
:1005B800493F90934A3F8091493F90914A3F982FF5
:1005C80088278093493F90934A3F81E094E161D323
:1005D8002091493F30914A3F280F311D2093493FD0
:1005E80030934A3F8091493F90914A3F8C329140E5
:1005F80030F48CE291E08093493F90934A3F85E044
:1006080094E147D390E08093473F9093483F44D389
:1006180080936D3F2DD38091211180936C3F809101
:0C062800201180936B3F89E39FE34CC2DC
:1006340080916F3F8093133F80916E3F8093143F6E
:1006440080914B3F90914C3F8093153F9093163F80
:100654008091493F90914A3F8093173F9093183F70
:100664008091473F9091483F8093193F90931A3F60
:1006740086E0E9E3FFE3ABE1BFE301900D928A95E5
:10068400E1F78EE08093213F8FE08093223F80E169
:100694008093233F81E18093243F82E18093253F2F
:1006A40080E090E0FC01E050F14C1082019683312F
:0606B4009105C1F7089555
:1006BA00E0E0F4E0148288E88083108A118A128AC2
:1006CA00138A148A158A168A178AE0E0F2E01082E1
:1006DA00118281E08283138286E596E080935D3FF2
:1006EA0090935E3F87E596E080935B3F90935C3FF3
:1006FA0088E596E08093593F90935A3F89E596E0C2
:10070A008093573F9093583F85E596E08093553FF5
:10071A009093563F84E596E08093533F9093543FDD
:02072A00089530
:10072C00DC018C91EFE3FFE3808311968C911197A0
:10073C00818312968C911297828313968C911397C6
:10074C00838314968C911497848315968C9185834E
:10075C0080818093813F81818093803F82818093CF
:10076C007F3F9091803F80917F3F890F80937E3FA8
:10077C00838180937B3F848180937A3F85818093B2
:10078C00793F90917A3F8091793F890F8093783FA0
:02079C000895BE
:10079E001F920F920FB60F9211242F933F934F93E8
:1007AE005F936F937F938F939F93AF93BF93EF93CB
:1007BE00FF938091460A80FF0AC0E091613FF0915D
:1007CE00623F309709F0099581E08093460AFF91C8
:1007DE00EF91BF91AF919F918F917F916F915F91AB
:1007EE004F913F912F910F900FBE0F901F90189524
:1007FE001F920F920FB60F9211242F933F934F9388
:10080E005F936F937F938F939F93AF93BF93EF936A
:10081E00FF9381E080930B06E0914F3FF091503FA4
:10082E00309709F00995FF91EF91BF91AF919F918C
:10083E008F917F916F915F914F913F912F910F907B
:08084E000FBE0F901F901895DA
:100856001F920F920FB60F9211242F933F934F932F
:100866005F936F937F938F939F93AF93BF93EF9312
:10087600FF9382E080930B06E0914D3FF0914E3F4F
:10088600309709F00995FF91EF91BF91AF919F9134
:100896008F917F916F915F914F913F912F910F9023
:0808A6000FBE0F901F90189582
:1008AE001F920F920FB60F9211242F933F934F93D7
:1008BE005F936F937F938F939F93AF93BF93EF93BA
:1008CE00FF93E0915F3FF091603F309709F00995FB
:1008DE0081E080938A00FF91EF91BF91AF919F913C
:1008EE008F917F916F915F914F913F912F910F90CB
:0808FE000FBE0F901F9018952A
:100906004FD18EE096E0A7D180E48093020422D0F6
:1009160052D13FDE8CDE8AD070D11092713F809129
:10092600713F8823E1F31092713FA8955FD198D16A
:100936008093453F9093463F6CDD52DC8091703F3B
:100946008F5F8093703F8091703F823340F31092A7
:04095600703FE5CF3A
:10095A001092833F82E08093803F97E190937F3F9C
:10096A009FE79093813F99E190937E3F9FEB90930D
:10097A007B3F93E090937A3F8093793F85E0809321
:10098A00783F1092773F1092693F10926A3F109217
:10099A00823F10927C3F10927D3F8091693F9091F7
:0409AA006A3F52C18D
:1009AE00E0E0F6E080818E7F808382858C7F828777
:1009BE0083E0838710924F3F1092503F10924D3F2D
:1009CE0010924E3F11821282138214821582168269
:1009DE00108611861486148A158A128A138A168A2C
:0809EE00128681E08083089568
:1009F600E0E0FAE010A611A612A613A614A615A604
:100A060010A211A283E181831282138214821582BD
:100A16001682178216861186128613868FEF9FEF2F
:0C0A260086A397A3178685E080830895BF
:100A3200CF93DF93C6E2DFE38EE0E3E1FFE3DE0183
:100A420001900D928A95E1F780916D3F8E871F8606
:100A5200188A80916C3F898B80916B3F8A8BDF91E2
:040A6200CF91089593
:100A6600E0E4FAE080818E7F808311821086148212
:100A760080E593EC848795871286138616828AE52D
:100A860096E08093613F9093623F81E0858383E0A7
:040A960080830895BC
:100A9A0040E068ED80E690E0E6D043E068ED81E66C
:100AAA0090E0E1D040E068ED82E690E0DCD040E002
:100ABA0068ED80E790E0D7D040E068ED88E790E005
:020ACA00D2C098
:100ACC00FC01AFE3BFE38C91808311968C9111975D
:100ADC00818312968C911297828313968C91139723
:100AEC00838314968C911497848315968C918583AB
:020AFC0008955B
:100AFE00E0E1F8E0108212828DE384878EEF868724
:100B0E0081E681871286158613861092513F1092C8
:040B1E00523F0895A5
:100B22008093060680910806816080930806809172
:100B3200080680FDFCCF8091100690911106089561
:100B420045E068ED80E890E092D0E0E8F0E082E0F5
:0E0B52008183118612861386108680E0089536
:100B600040E068ED80E191E083D0E0E1F1E01282C5
:080B70001382789480E00895DF
:100B780040E068ED80E091E077D040E868ED81E002
:080B880091E072D080E00895B5
:100B9000E0E1F8E010821282148616861186128631
:060BA0001586138608957E
:100BA60079DF88DD01DF24DF5BDFC8DFA5DF6FD0FB
:060BB60038D0DFDFD2CFD2
:100BBC008BE190E08093673F9093683F8093653F13
:060BCC009093663F0895BE
:100BD2007F05C805440647061A061F062406F205C5
:020BE200000011
:0E0BE400009721F08093513F9093523F089567
:0E0BF2008EE196DF8093633F9093643F0895F9
:0E0C0000E091E08BF091E18B8FE891E0099498
:0E0C0E00EC0153D051D0CE0151D0CE0150D0C8
:0C0C1C008091713F8F5F8093713F0895BD
:0C0C2800E0EAF0E01082118280E0089504
:0A0C34008091733F1092733F089502
:0A0C3E0080911B08869581700895CF
:0A0C480080911B08829581700895C9
:0A0C52008093380A9093390A089540
:0A0C5C008093613F9093623F08957A
:0A0C66008091633F9091643F089570
:080C7000FC0164BF40830895FC
:080C78008FE380934000089512
:080C800081E080937D3F08959F
:060C880080931D08089591
:060C8E0080911D0808958D
:060C94001092011008950A
:060C9A00FC0180810895B9
:060CA00080914000089560
:020CA600ACC9D7
:020CA8000895AD
:020CAA000895AB
:020CAC000895A9
:020CAE000895A7
:020CB0000895A5
:020CB2000895A3
:020CB4000895A1
:020CB60008959F
:020CB80008959D
:020CBA0008959B
:020CBC00E4D979
:02000004008278
:090000001345020000C4030000D6
:00000001FF
