:100000001CC0B1C5DDC333C2AEC5ADC5ACC5ABC543
:10001000AAC5A9C5A8C5A7C5A6C54AC3A4C5A3C5E1
:10002000A2C576C3A1C331C09EC59DC59CC59BC555
:100030009AC599C53F003F86800011241FBECFEFAF
:10004000CDBFDFE3DEBFE4E3F0E040E017C0B591F1
:10005000A59135912591059107FD0CC0959185914C
:10006000EF01F92FE82F05900D92A217B307D9F7EA
:10007000FE0104C01D92A217B307E1F7E933F407AC
:0A00800031F7F4D32DC5F894FFCF3B
:10008A001F920F920FB60F9211242F933F934F9303
:10009A005F936F937F938F939F93AF93BF93EF93E6
:1000AA00FF9380911B0883FD31C080911B0882FD5C
:1000BA002DC080911B0887FD04C080911B0886FF14
:1000CA0014C080911B0886FF04C080911B0880FF22
:1000DA0054C080911B0886FF04C080911B0880FDD4
:1000EA003CC080911B0887FD1CC0FF91EF91BF9116
:1000FA00AF919F918F917F916F915F914F913F91B6
:10010A002F910F900FBE0F901F90189580911B088A
:10011A0083FD4DC080911B0882FD15C01092753F6A
:10012A00C8CF80911B0881FF4CC08091743F811118
:10013A0032C080911B0884FF2EC083E080931A0886
:10014A001092743FD2CF82E08093753FE091523F84
:10015A00F091533F85E00995ACCF81E08093743FDD
:10016A001092753FE091523FF091533F09958823D1
:10017A0089F183E080931A08B8CF1092743FE09116
:10018A00523FF091533F84E0099580911B08806C9F
:10019A0080931B08AACFE091523FF091533F83E02E
:1001AA0009958111CACF86E080931A08C9CF81E0E8
:1001BA008093753FE091523FF091533F85E0099556
:1001CA0078CFE091523FF091533F82E0099588231E
:0C01DA0051F3B3CF86E080931A0887CF62
:1001E600CF93DF93C82F833091F1E0F4813009F487
:1001F60048C0823099F48091783F882309F44CC036
:100206001092783FE091AA8AF091AB8A0995809383
:10021600773F8091773F843108F055C081E0DF91C8
:10022600CF910895843039F18530C1F7E091AC8AD9
:10023600F091AD8A09958093763F8091763F813023
:1002460069F38091763F81E0DF91CF910895E09147
:10025600773FF0E0E85DF04C8081E091A88AF0916C
:10026600A98A09958091773F8F5F8093773F809128
:10027600773F843198F21092773F81E0DF91CF91FA
:100286000895E091AE8AF091AF8A0995811117C061
:10029600C093783F81E0C3CFC091773FD0E0E09133
:1002A600AA8AF091AB8A0995CC5ED04C8883E091FE
:1002B600773FF0E0E050F14C81E08083D3CF10929D
:0E02C600783F81E0ACCF1092773F80E0A8CF68
:1002D4008091853F882309F442C0813069F09AD225
:1002E4008091793F90E080936A3F90936B3F809137
:1002F4006A3F90916B3F14C48091843F8F5F8093D9
:10030400843F9091843F8091803F981710F0109221
:10031400843F9091843F8091813F981798F5109283
:10032400793F80917F3F8823D9F280917E3F8F5F10
:1003340080937E3F90917E3F80917A3F981720F082
:1003440010927E3F10927F3F90917E3F80917B3F41
:10035400981738F180917D3F8093793FC1CF809188
:10036400843F8F5F8093843F8091843F863598F4E7
:100374008091843F853559F08091793F8D5F8093DA
:10038400793FAECF8091833F8093793FCACF8FEF7F
:100394008093793FA5CF81E08093853F1092843F7D
:0803A4009FCF1092793F9CCF1E
:1003AC008091713F8093143F8091703F8093153FF3
:1003BC0080914C3F90914D3F8093163F80914C3FE4
:1003CC0090914D3F9093173F80914A3F90914B3FB6
:1003DC008093183F80914A3F90914B3F9093193FE7
:1003EC008091483F9091493F80931A3F8091483FBC
:1003FC009091493F90931B3F80913C3F80931C3FD1
:10040C0080913D3F80931D3F80913E3F80931E3FE6
:10041C0080913F3F80931F3F8091403F8093203FCE
:10042C008091413F8093213F8EE08093223F8FE06B
:10043C008093233F80E18093243F81E18093253F8B
:10044C0082E18093263F83E18093273F80E090E018
:10045C00FC01E050F14C1082019684319105C1F7FA
:02046C000895F1
:10046E001F920F920FB60F9211242F933F934F931B
:10047E005F936F937F938F939F93AF93BF93EF93FE
:10048E00FF9318993BC01A9933C0199924C01F992C
:10049E0029C01E991AC01B9B05C0E091543FF091D4
:1004AE00553F09958FEF83B9FF91EF91BF91AF91B2
:1004BE009F918F917F916F915F914F913F912F916E
:1004CE000F900FBE0F901F901895E091563FF09130
:1004DE00573F0995E0CFE0915A3FF0915B3F099568
:1004EE001F9BD7CFE091583FF091593F0995D1CF3F
:1004FE00E0915C3FF0915D3F0995C7CFE0915E3F83
:08050E00F0915F3F0995BFCF9A
:100516001092713F80E094E11DD38093703F10925A
:100526004C3F10924D3F82E094E114D390E08093CB
:100536004A3F90934B3F80914A3F90914B3F982F73
:10054600882780934A3F90934B3F81E094E102D302
:1005560020914A3F30914B3F280F311D20934A3F4F
:1005660030934B3F80914A3F90914B3F8C32914064
:1005760030F48CE291E080934A3F90934B3F85E0C4
:1005860094E1E8D290E08093483F9093493FE5D2CA
:1005960080936F3FD2D28091211180936D3F8091DD
:0C05A600201180936C3F8CE39FE3F6C1B2
:1005B200A4E1BFE38C91E8E2FFE3808311968C9182
:1005C2001197818312968C911297828313968C9144
:1005D2001397838314968C911497848315968C9128
:1005E2001597858316968C911697868317968C910C
:1005F2001797878318968C911897808719968C91F4
:10060200199781871A968C911A9782871B968C91DB
:100612001B9783871C968C911C9784871D968C91BF
:10062200858780916F3F868780916E3F8787809113
:0C0632006D3F808B80916C3F818B0895A0
:10063E00E0E0F4E0148288E88083108A118A128A3E
:10064E00138A148A158A168A178AE0E0F2E010825D
:10065E00118281E08283138286EB95E080935E3F68
:10066E0090935F3F87EB95E080935C3F90935D3F67
:10067E0088EB95E080935A3F90935B3F89EB95E032
:10068E008093583F9093593F85EB95E08093563F6A
:10069E009093573F84EB95E08093543F9093553F52
:0206AE000895AD
:1006B0001F920F920FB60F9211242F933F934F93D7
:1006C0005F936F937F938F939F93AF93BF93EF93BA
:1006D000FF938091460A80FF0AC0E091623FF0914B
:1006E000633F309709F0099581E08093460AFF91B6
:1006F000EF91BF91AF919F918F917F916F915F919A
:100700004F913F912F910F900FBE0F901F90189512
:100710001F920F920FB60F9211242F933F934F9376
:100720005F936F937F938F939F93AF93BF93EF9359
:10073000FF9381E080930B06E091503FF091513F91
:10074000309709F00995FF91EF91BF91AF919F917B
:100750008F917F916F915F914F913F912F910F906A
:080760000FBE0F901F901895C9
:100768001F920F920FB60F9211242F933F934F931E
:100778005F936F937F938F939F93AF93BF93EF9301
:10078800FF9382E080930B06E0914E3FF0914F3F3C
:10079800309709F00995FF91EF91BF91AF919F9123
:1007A8008F917F916F915F914F913F912F910F9012
:0807B8000FBE0F901F90189571
:1007C0001F920F920FB60F9211242F933F934F93C6
:1007D0005F936F937F938F939F93AF93BF93EF93A9
:1007E000FF93E091603FF091613F309709F00995E8
:1007F00081E080938A00FF91EF91BF91AF919F912B
:100800008F917F916F915F914F913F912F910F90B9
:080810000FBE0F901F90189518
:100818001092853F82E08093823F97E19093813FD9
:100828009FE79093833F99E19093803F9FEB90934C
:100838007D3F93E090937C3F80937B3F85E080935E
:100848007A3F1092793F10926A3F10926B3F109254
:10085800843F10927E3F10927F3F80916A3F909133
:040868006B3F5CC1C5
:10086C0005D187E795E05DD180E480930204CEDF6B
:10087C0008D14BDE95DD97DE26D11092733F809127
:10088C00733F8823E1F31092733FA89515D11CDDBB
:10089C008091723F8F5F8093723F8091723F823361
:0808AC0070F31092723FEBCFD4
:1008B400E0E0F6E080818E7F808382858C7F828772
:1008C40083E083871092503F1092513F10924E3F25
:1008D40010924F3F11821282138214821582168263
:1008E400108611861486148A158A128A138A168A27
:0808F400128681E08083089563
:1008FC00E0E0FAE010A611A612A613A614A615A6FF
:10090C0010A211A283E181831282138214821582B8
:10091C001682178216861186128613868FEF9FEF2A
:0C092C0086A397A3178685E080830895BA
:10093800E0E4FAE080818E7F808311821086148241
:1009480080E593EC848795871286138616828AEB56
:1009580095E08093623F9093633F81E0858383E0D5
:0409680080830895EB
:10096C0040E068ED80E690E0E1D043E068ED81E6A0
:10097C0090E0DCD040E068ED82E690E0D7D040E03B
:10098C0068ED80E790E0D2D040E068ED88E790E039
:02099C00CDC0CC
:10099E00FC01A2E4BFE38C91808311968C91119798
:1009AE00818312968C911297828313968C91139752
:1009BE00838314968C911497848315968C918583DA
:0209CE0008958A
:1009D000E0E1F8E0108212828DE384878EEF868753
:1009E00081E681871286158613861092523F1092F7
:0409F000533F0895D4
:1009F40080930606809108068160809308068091A2
:100A0400080680FDFCCF8091100690911106089590
:100A140045E068ED80E890E08DD0E0E8F0E082E029
:0E0A24008183118612861386108680E0089565
:100A320040E068ED80E191E07ED0E0E1F1E01282F9
:080A42001382789480E008950E
:100A4A0040E068ED80E091E072D040E868ED81E036
:080A5A0091E06DD080E00895E9
:100A6200E0E1F8E010821282148616861186128660
:060A7200158613860895AD
:100A780079DFE1DD1BDF3EDF5BDFC8DFA5DF66D0A6
:060A880038D0DFDFD2CF01
:100A8E008BE190E08093683F9093693F8093663F3F
:060A9E009093673F0895EC
:100AA400E8043105A405A705830588058D055B05C4
:020AB400000040
:0E0AB600009721F08093523F9093533F089594
:0E0AC4008EE196DF8093643F9093653F089526
:0E0AD200E091B28AF091B38A83EF90E009942C
:0E0AE000EC014AD048D0CE0148D0CE0147D01C
:0C0AEE008091733F8F5F8093733F0895E9
:0C0AFA00E0EAF0E01082118280E0089534
:0A0B06008091753F1092753F08952D
:0A0B100080911B08869581700895FE
:0A0B1A0080911B08829581700895F8
:0A0B24008093380A9093390A08956F
:0A0B2E008093623F9093633F0895A7
:080B3800FC0164BF4083089535
:080B40008FE38093400008954B
:060B480080931D080895D2
:060B4E0080911D080895CE
:060B54001092011008954B
:060B5A00FC0180810895FA
:060B6000809140000895A1
:020B66004CCA77
:020B68000895EE
:020B6A000895EC
:020B6C000895EA
:020B6E000895E8
:020B70000895E6
:020B72000895E4
:020B74000895E2
:020B76000895E0
:020B78000895DE
:020B7A000895DC
:020B7C0084DA19
:02000004008278
:090000001345020000C4030000D6
:00000001FF
