:100000001CC031C70CC52EC32EC72DC72CC72BC78C
:100010002AC729C728C727C726C779C424C723C723
:1000200022C7A5C4D0C42AC11EC71DC71CC71BC771
:100030001AC719C73F003FD2800011241FBECFEF5F
:10004000CDBFDFE3DEBFE4E3F0E040E017C0B591F1
:10005000A59135912591059107FD0CC0959185914C
:10006000EF01F92FE82F05900D92A217B307D9F7EA
:10007000FE0104C01D92A217B307E1F7E933F407AC
:0A00800031F7F9D497C6F894FFCFCA
:10008A0086E1EFE6FFE3DF01982F1D929A95E9F7E3
:10009A00F894E7E1FFE3A9E5BFE3982F01900D92F9
:1000AA009A95E1F7E0E0FFE3A3E4BFE301900D9244
:1000BA008A95E1F778948091433F882339F08091BB
:1000CA00593F8093853F81E080936F3F8091443F01
:1000DA00882339F080915A3F8093863F81E080934C
:1000EA00703F8091463F81115EC08091473F8111E8
:1000FA005AC08091483F811148C08091493F81117F
:10010A0044C080914C3F811105C080914D3F8823A6
:10011A0009F457C086E0E2E6FFE3AEE8BFE30190E8
:10012A000D928A95E1F78EE89FE30FD646E050E0FC
:10013A0061E070E088E79FE31AD68091453F81111C
:10014A0052C080914A3F811160C080914B3F81111A
:10015A0076C0F89486E1E5E8FFE3ADE2BFE30190FB
:10016A000D928A95E1F7EFE6FFE3CF018F569F43A1
:10017A002191222321F0DC01A050B14C1C92AFE363
:10018A00E538FA0791F77894089580915E3F909147
:10019A005F3F80938A3F90938B3F81E08093743FC7
:1001AA008093753FAECF80915C3F90915D3F809385
:1001BA00883F9093893F81E08093723F8093733F99
:1001CA0098CF80914E3F8111A5CF80914F3F8111E9
:1001DA00A1CF8091503F81119DCF8091513F8823BB
:1001EA0009F4ABCF97CF60915B3F6093873F80E084
:1001FA0094E15AD5D7D28111ACCF80915B3F8093DD
:10020A00873F81E08093713FA4CF6091603F609304
:10021A008C3F80E094E148D5C5D281119ACF809174
:10022A004B3F811108C08091603F9091613F80935C
:10023A008C3F90938D3F81E08093763F8ACF609187
:10024A00613F60938D3F80E094E12ED5ABD281115E
:10025A0080CF80914A3F811108C08091603F909180
:10026A00613F80938C3F90938D3F81E08093773FED
:02027A0070CF43
:10027C001F920F920FB60F9211242F933F934F930F
:10028C005F936F937F938F939F93AF93BF93EF93F2
:10029C00FF9380911B0883FD31C080911B0882FD68
:1002AC002DC080911B0887FD04C080911B0886FF20
:1002BC0014C080911B0886FF04C080911B0880FF2E
:1002CC0054C080911B0886FF04C080911B0880FDE0
:1002DC003CC080911B0887FD1CC0FF91EF91BF9122
:1002EC00AF919F918F917F916F915F914F913F91C2
:1002FC002F910F900FBE0F901F90189580911B0897
:10030C0083FD4DC080911B0882FD15C01092C83F23
:10031C00C8CF80911B0881FF4CC08091C73F8111D1
:10032C0032C080911B0884FF2EC083E080931A0892
:10033C001092C73FD2CF82E08093C83FE091A53F97
:10034C00F091A63F85E00995ACCF81E08093C73F43
:10035C001092C83FE091A53FF091A63F09958823E4
:10036C0089F183E080931A08B8CF1092C73FE091CF
:10037C00A53FF091A63F84E0099580911B08806C05
:10038C0080931B08AACFE091A53FF091A63F83E094
:10039C0009958111CACF86E080931A08C9CF81E0F4
:1003AC008093C83FE091A53FF091A63F85E0099569
:1003BC0078CFE091A53FF091A63F82E00995882384
:0C03CC0051F3B3CF86E080931A0887CF6E
:1003D800CF93DF93C82F8330B1F1D8F4813041F146
:1003E800823099F48091CC3F882309F453C010924D
:1003F800CC3FE091488DF091498D09958093CB3F92
:100408008091CB3F863108F058C081E0DF91CF91D1
:100418000895843091F18530C1F7E0914A8DF091CB
:100428004B8D09958093163F81E0DF91CF91089518
:10043800E0914C8DF0914D8D0995811127C0C093A5
:10044800CC3F81E0E3CFE091CB3FF0E0E35DF04CBF
:100458008081E091468DF091478D09958091CB3F41
:100468008F5F8093CB3F8091CB3F863170F21092A3
:10047800CB3F81E0DF91CF9108951092CB3FD9D443
:100488001092163F81E0DF91CF9108951092CC3FF2
:1004980081E0BCCFC091CB3FD0E0E091488DF09196
:1004A800498D0995C95ED04C8883E091CB3FF0E037
:1004B800E050F14C81E08083D1CF1092CB3F80E0B7
:0204C800A5CFBE
:1004CA008091D13F882309F447C0813069F01CD359
:1004DA008091CD3F90E08093BF3F9093C03F809141
:1004EA00BF3F9091C03F8DC48091CF3F8F5F809373
:1004FA00CF3F90919C3F8091CF3F891708F03FC032
:10050A0080919B3F8093CD3F90919D3F8091CF3FBB
:10051A00891730F01092CF3F80919B3F8093CD3F57
:10052A008091D03F8823A1F28091CE3F8F5F809344
:10053A00CE3F90919F3F8091CE3F891768F11092EC
:10054A00CD3F9091A03F8091CE3F891708F210923B
:10055A00CE3F1092D03FBCCF8091CF3F8F5F809328
:10056A00CF3F8091CF3F863588F48091CF3F853544
:10057A0049F08091CD3F8D5F8093CD3FA9CF1092F6
:10058A00CD3FC2CF8FEF8093CD3FA2CF81E0809342
:10059A00D13F1092CF3F9CCF80919E3F8093CD3F19
:0205AA00D0CFB0
:1005AC001092853F8EE18093863F80E094E14CD49D
:1005BC008093873F1092883F1092893F8CE291E0A4
:1005CC0080938A3F90938B3F82E094E13DD480935B
:1005DC008C3F83E094E138D480938D3F8EE89FE389
:1005EC00BCD335D48093943F1ED41092953F109277
:1005FC00963F809121118093973F80912011809399
:10060C00983F1092993F10929A3F86E1E5E8FFE3FC
:10061C00A7E1BFE301900D928A95E1F78EE090E09F
:10062C00FC01E95EF04C8083019686319105C1F79F
:10063C0080E090E0FC01E050F14C10820196863194
:10064C009105C1F786E1E5E8FFE3ADE2BFE3019078
:08065C000D928A95E1F7089563
:100664001F920F920FB60F9211242F933F934F9323
:100674005F936F937F938F939F93AF93BF93EF9306
:10068400FF9318993BC01A9933C0199924C01F9934
:1006940029C01E991AC01B9B05C0E091A73FF09189
:1006A400A83F09958FEF83B9FF91EF91BF91AF9167
:1006B4009F918F917F916F915F914F913F912F9176
:1006C4000F900FBE0F901F901895E091A93FF091E5
:1006D400AA3F0995E0CFE091AD3FF091AE3F099577
:1006E4001F9BD7CFE091AB3FF091AC3F0995D1CFA1
:1006F400E091AF3FF091B03F0995C7CFE091B13F92
:08070400F091B23F0995BFCF4F
:10070C008091873F833601F18091C43F811110C0E5
:10071C008091163F882341F08091C13F8823A1F13D
:10072C0081508093C13F089589E18093C13F089522
:10073C008091C33F81112FC080E480930604809385
:10074C00010480930604E4CF8091883F9091893F07
:10075C0020918A3F30918B3F82179307B0F08091A4
:10076C008C3F90918D3F019680938C3F90938D3F61
:10077C001092873F81E08093C43F83E08093C23F17
:10078C0089E08093C33FC4CF36C301968093883FE2
:10079C009093893FB9CF81508093C33F8111B8CFDB
:0207AC00CBCFB1
:1007AE00CF93C091C93FC23001F1C33091F0C13037
:1007BE0039F081E08093C93FC1E08C2FCF9108952D
:1007CE0014D381110AC082E08093C93F8C2FCF9140
:1007DE0008950BD3882391F0C1E08091C93F811118
:1007EE00ECCFC0E08C2FCF9108958091BD3F9091BA
:1007FE00BE3F29D36091CA3F861304C01092C93FF1
:10080E00C0E0F0CF8091BD3F9091BE3FBED283E05D
:0C081E008093C93FC1E08C2FCF9108955A
:10082A008091C43F8823A9F08091C23F833028F485
:10083A00823019F18130A1F0089560915B3F80E028
:10084A0094E132D2AFDF8111F7CF82E08093C23FC9
:10085A000895E1D28093953F9093963F11DC92C11F
:10086A006091613F83E094E11FD29CDF8111E4CF64
:10087A001092C23F1092C33F08956091603F82E098
:10088A0094E112D28FDF8111D7CF81E08093C23FEA
:02089A000895BF
:10089C00E0E0F4E0148288E88083108A118A128ADE
:1008AC00138A148A158A168A178AE0E0F2E01082FD
:1008BC00118281E08283138286E397E08093B13FBB
:1008CC009093B23F87E397E08093AF3F9093B03F14
:1008DC0088E397E08093AD3F9093AE3F89E397E038
:1008EC008093AB3F9093AC3F85E397E08093A93F17
:1008FC009093AA3F84E397E08093A73F9093A83FFF
:02090C0008954C
:10090E001F920F920FB60F9211242F933F934F9376
:10091E005F936F937F938F939F93AF93BF93EF9359
:10092E00FF938091460A80FF0AC0E091B53FF09197
:10093E00B63F309709F0099581E08093460AFF9102
:10094E00EF91BF91AF919F918F917F916F915F9139
:10095E004F913F912F910F900FBE0F901F901895B2
:10096E001F920F920FB60F9211242F933F934F9316
:10097E005F936F937F938F939F93AF93BF93EF93F9
:10098E00FF9381E080930B06E091A33FF091A43F8B
:10099E00309709F00995FF91EF91BF91AF919F911B
:1009AE008F917F916F915F914F913F912F910F900A
:0809BE000FBE0F901F90189569
:1009C6001F920F920FB60F9211242F933F934F93BE
:1009D6005F936F937F938F939F93AF93BF93EF93A1
:1009E600FF9382E080930B06E091A13FF091A23F36
:1009F600309709F00995FF91EF91BF91AF919F91C3
:100A06008F917F916F915F914F913F912F910F90B1
:080A16000FBE0F901F90189510
:100A1E001F920F920FB60F9211242F933F934F9365
:100A2E005F936F937F938F939F93AF93BF93EF9348
:100A3E00FF93E091B33FF091B43F309709F00995E1
:100A4E0081E080938A00FF91EF91BF91AF919F91CA
:100A5E008F917F916F915F914F913F912F910F9059
:080A6E000FBE0F901F901895B8
:100A76004FD181EE96E0CCD180E4809302041092AF
:100A8600C43F89E18093C13F41D04DD1E6D18BDD92
:100A9600DDD01092C63F8091C63F8823E1F31092C5
:100AA600C63FA8957DD10EDDBDDE8091C53F8F5F27
:100AB6008093C53F8091C53F823368F31092C53F4E
:040AC60022DEE9CF74
:100ACA00E0E0F6E080818E7F808382858C7F82875A
:100ADA0083E083871092A33F1092A43F1092A13F14
:100AEA001092A23F118212821382148215821682F8
:100AFA00108611861486148A158A128A138A168A0F
:080B0A00128681E0808308954A
:100B12001092D13FEBE9FFE382E0818397E1928378
:100B22009FE790839FEB938393E094838583109256
:100B3200CD3F1092BF3F1092C03F1092CF3F109214
:100B4200CE3F1092D03F8091BF3F9091C03F5DC198
:100B5200E0E0FAE010A611A612A613A614A615A6A6
:100B620010A211A283E18183128213821482158260
:100B72001682178216861186128613868FEF9FEFD2
:0C0B820086A397A3178685E08083089562
:100B8E008091853F8131C1F0813251F0813009F081
:100B9E0008951092853F1092883F1092893F0895D4
:100BAE001092853F81E08093C43F8091863F809371
:0A0BBE00C33F1092C23F08951DC10D
:100BC800E0E4FAE080818E7F8083118210861482AF
:100BD80080E593EC848795871286138616828AE3CC
:100BE80097E08093B53F9093B63F81E0858383E09B
:040BF8008083089559
:100BFC0040E068ED80E690E012D143E068ED81E6DC
:100C0C0090E00DD140E068ED82E690E008D140E044
:100C1C0068ED80E790E003D140E068ED88E790E074
:020C2C00FEC008
:100C2E00E0E1F8E0108212828DE384878EEF8687F2
:100C3E0081E681871286158613861092A53F109243
:040C4E00A63F089520
:100C5200CF93DF93C2E4DDE8EE85FF858CEE91E071
:100C62000995E881F98109951092163FDF91CF919C
:020C72000895E3
:100C7400809306068091080681608093080680911F
:100C8400080680FDFCCF809110069091110608950E
:100C940045E068ED80E890E0C6D0E0E8F0E082E06E
:0E0CA4008183118612861386108680E00895E3
:100CB2009C019091C93F911109C02093BD3F30938F
:0E0CC200BE3F6093CA3F81E08093C93F089512
:100CD00040E068ED80E191E0A8D0E0E1F1E012822F
:080CE0001382789480E008956E
:100CE80040E068ED80E091E09CD040E868ED81E06C
:080CF80091E097D080E008951F
:100D0000E0E1F8E0108212821486168611861286BF
:060D10001586138608950C
:100D160072DFC1DDD7DE1ADF54DFB9DF85DF94D09D
:060D260053D0DFDFD2CF45
:100D2C008BE190E08093BB3F9093BC3F8093B93FA5
:060D3C009093BA3F0895F8
:100D42001706800621072407ED06F206F706C506F8
:020D520000009F
:100D5400FC0196E0ABE9BFE301900D929A95E1F7AF
:020D64000895F0
:100D6600DC0196E0EBE9FFE301900D929A95E1F73D
:020D76000895DE
:100D7800FC01480F591FE417F50711F06193FBCFE9
:020D88000895CC
:0E0D8A00009721F08093A53F9093A63F089517
:0E0D9800FC01608343E06DE980E090E142C021
:0E0DA6008EE165DF8093B73F9093B83F0895CC
:0E0DB400EC0160D05ED0CE015ED0CE015DD0ED
:0C0DC2008091C63F8F5F8093C63F08956C
:0C0DCE00E0EAF0E01082118280E008955D
:0A0DDA008091C83F1092C83F0895B1
:0A0DE40080911B0886958170089528
:0A0DEE0080911B0882958170089522
:0A0DF8008091021086958170089525
:0A0E020041E068ED81E490E00FC0CC
:0A0E0C008093380A9093390A089584
:0A0E16008093B53F9093B63F089516
:0A0E20008091B73F9091B83F08950C
:080E2A00FC0164BF4083089540
:080E32008FE380934000089556
:080E3A0081E08093D03F089590
:060E420080931D080895D5
:060E480080911D080895D1
:060E4E001092011008954E
:060E5400FC0180810895FD
:060E5A00809140000895A4
:060E60001092C93F089545
:020E6600CCC8F6
:020E68000895EB
:020E6A000895E9
:020E6C000895E7
:020E6E000895E5
:020E70000895E3
:020E72000895E1
:020E74000895DF
:020E76000895DD
:020E78000895DB
:020E7A000895D9
:020E7C0004D997
:02000004008278
:090000001345020000C4030000D6
:00000001FF
